{
  "abi": [
    {
      "inputs": [
        {
          "internalType": "uint8",
          "name": "index",
          "type": "uint8"
        }
      ],
      "name": "checkMaxForIndex",
      "outputs": [],
      "stateMutability": "pure",
      "type": "function"
    },
    {
      "inputs": [
        {
          "internalType": "uint256",
          "name": "input",
          "type": "uint256"
        }
      ],
      "name": "checkSqrt",
      "outputs": [],
      "stateMutability": "pure",
      "type": "function"
    }
  ],
  "evm": {
    "bytecode": {
      "linkReferences": {},
      "object": "608060405234801561001057600080fd5b506102ad806100206000396000f3fe608060405234801561001057600080fd5b50600436106100365760003560e01c8063922ab1e21461003b578063e4134de51461005a575b600080fd5b6100586004803603602081101561005157600080fd5b503561007a565b005b6100586004803603602081101561007057600080fd5b503560ff166100db565b600061008582610122565b905070010000000000000000000000000000000081106100a157fe5b816002820a11156100ae57fe5b816002826001010a11806100d157506fffffffffffffffffffffffffffffffff81145b6100d757fe5b5050565b61011f8160ff1660ff146100f8578160010160ff1660020a61011a565b7fffffffffffffffffffffffffffffffffffffffffffffffffffffffffffffffff5b61007a565b50565b60008161013157506000610272565b81600170010000000000000000000000000000000082106101575760809190911c9060401b5b6801000000000000000082106101725760409190911c9060201b5b64010000000082106101895760209190911c9060101b5b62010000821061019e5760109190911c9060081b5b61010082106101b25760089190911c9060041b5b601082106101c55760049190911c9060021b5b600882106101d15760011b5b60018185816101dc57fe5b048201901c905060018185816101ee57fe5b048201901c9050600181858161020057fe5b048201901c9050600181858161021257fe5b048201901c9050600181858161022457fe5b048201901c9050600181858161023657fe5b048201901c9050600181858161024857fe5b048201901c9050600081858161025a57fe5b04905080821061026a578061026c565b815b93505050505b91905056fea2646970667358221220b88c03b4dd894a859c5f737cd23cc6f98e6ddacb8deef4dfc1b406cecf55233964736f6c634300060c0033",
      "opcodes": "PUSH1 0x80 PUSH1 0x40 MSTORE CALLVALUE DUP1 ISZERO PUSH2 0x10 JUMPI PUSH1 0x0 DUP1 REVERT JUMPDEST POP PUSH2 0x2AD DUP1 PUSH2 0x20 PUSH1 0x0 CODECOPY PUSH1 0x0 RETURN INVALID PUSH1 0x80 PUSH1 0x40 MSTORE CALLVALUE DUP1 ISZERO PUSH2 0x10 JUMPI PUSH1 0x0 DUP1 REVERT JUMPDEST POP PUSH1 0x4 CALLDATASIZE LT PUSH2 0x36 JUMPI PUSH1 0x0 CALLDATALOAD PUSH1 0xE0 SHR DUP1 PUSH4 0x922AB1E2 EQ PUSH2 0x3B JUMPI DUP1 PUSH4 0xE4134DE5 EQ PUSH2 0x5A JUMPI JUMPDEST PUSH1 0x0 DUP1 REVERT JUMPDEST PUSH2 0x58 PUSH1 0x4 DUP1 CALLDATASIZE SUB PUSH1 0x20 DUP2 LT ISZERO PUSH2 0x51 JUMPI PUSH1 0x0 DUP1 REVERT JUMPDEST POP CALLDATALOAD PUSH2 0x7A JUMP JUMPDEST STOP JUMPDEST PUSH2 0x58 PUSH1 0x4 DUP1 CALLDATASIZE SUB PUSH1 0x20 DUP2 LT ISZERO PUSH2 0x70 JUMPI PUSH1 0x0 DUP1 REVERT JUMPDEST POP CALLDATALOAD PUSH1 0xFF AND PUSH2 0xDB JUMP JUMPDEST PUSH1 0x0 PUSH2 0x85 DUP3 PUSH2 0x122 JUMP JUMPDEST SWAP1 POP PUSH17 0x100000000000000000000000000000000 DUP2 LT PUSH2 0xA1 JUMPI INVALID JUMPDEST DUP2 PUSH1 0x2 DUP3 EXP GT ISZERO PUSH2 0xAE JUMPI INVALID JUMPDEST DUP2 PUSH1 0x2 DUP3 PUSH1 0x1 ADD EXP GT DUP1 PUSH2 0xD1 JUMPI POP PUSH16 0xFFFFFFFFFFFFFFFFFFFFFFFFFFFFFFFF DUP2 EQ JUMPDEST PUSH2 0xD7 JUMPI INVALID JUMPDEST POP POP JUMP JUMPDEST PUSH2 0x11F DUP2 PUSH1 0xFF AND PUSH1 0xFF EQ PUSH2 0xF8 JUMPI DUP2 PUSH1 0x1 ADD PUSH1 0xFF AND PUSH1 0x2 EXP PUSH2 0x11A JUMP JUMPDEST PUSH32 0xFFFFFFFFFFFFFFFFFFFFFFFFFFFFFFFFFFFFFFFFFFFFFFFFFFFFFFFFFFFFFFFF JUMPDEST PUSH2 0x7A JUMP JUMPDEST POP JUMP JUMPDEST PUSH1 0x0 DUP2 PUSH2 0x131 JUMPI POP PUSH1 0x0 PUSH2 0x272 JUMP JUMPDEST DUP2 PUSH1 0x1 PUSH17 0x100000000000000000000000000000000 DUP3 LT PUSH2 0x157 JUMPI PUSH1 0x80 SWAP2 SWAP1 SWAP2 SHR SWAP1 PUSH1 0x40 SHL JUMPDEST PUSH9 0x10000000000000000 DUP3 LT PUSH2 0x172 JUMPI PUSH1 0x40 SWAP2 SWAP1 SWAP2 SHR SWAP1 PUSH1 0x20 SHL JUMPDEST PUSH5 0x100000000 DUP3 LT PUSH2 0x189 JUMPI PUSH1 0x20 SWAP2 SWAP1 SWAP2 SHR SWAP1 PUSH1 0x10 SHL JUMPDEST PUSH3 0x10000 DUP3 LT PUSH2 0x19E JUMPI PUSH1 0x10 SWAP2 SWAP1 SWAP2 SHR SWAP1 PUSH1 0x8 SHL JUMPDEST PUSH2 0x100 DUP3 LT PUSH2 0x1B2 JUMPI PUSH1 0x8 SWAP2 SWAP1 SWAP2 SHR SWAP1 PUSH1 0x4 SHL JUMPDEST PUSH1 0x10 DUP3 LT PUSH2 0x1C5 JUMPI PUSH1 0x4 SWAP2 SWAP1 SWAP2 SHR SWAP1 PUSH1 0x2 SHL JUMPDEST PUSH1 0x8 DUP3 LT PUSH2 0x1D1 JUMPI PUSH1 0x1 SHL JUMPDEST PUSH1 0x1 DUP2 DUP6 DUP2 PUSH2 0x1DC JUMPI INVALID JUMPDEST DIV DUP3 ADD SWAP1 SHR SWAP1 POP PUSH1 0x1 DUP2 DUP6 DUP2 PUSH2 0x1EE JUMPI INVALID JUMPDEST DIV DUP3 ADD SWAP1 SHR SWAP1 POP PUSH1 0x1 DUP2 DUP6 DUP2 PUSH2 0x200 JUMPI INVALID JUMPDEST DIV DUP3 ADD SWAP1 SHR SWAP1 POP PUSH1 0x1 DUP2 DUP6 DUP2 PUSH2 0x212 JUMPI INVALID JUMPDEST DIV DUP3 ADD SWAP1 SHR SWAP1 POP PUSH1 0x1 DUP2 DUP6 DUP2 PUSH2 0x224 JUMPI INVALID JUMPDEST DIV DUP3 ADD SWAP1 SHR SWAP1 POP PUSH1 0x1 DUP2 DUP6 DUP2 PUSH2 0x236 JUMPI INVALID JUMPDEST DIV DUP3 ADD SWAP1 SHR SWAP1 POP PUSH1 0x1 DUP2 DUP6 DUP2 PUSH2 0x248 JUMPI INVALID JUMPDEST DIV DUP3 ADD SWAP1 SHR SWAP1 POP PUSH1 0x0 DUP2 DUP6 DUP2 PUSH2 0x25A JUMPI INVALID JUMPDEST DIV SWAP1 POP DUP1 DUP3 LT PUSH2 0x26A JUMPI DUP1 PUSH2 0x26C JUMP JUMPDEST DUP2 JUMPDEST SWAP4 POP POP POP POP JUMPDEST SWAP2 SWAP1 POP JUMP INVALID LOG2 PUSH5 0x6970667358 0x22 SLT KECCAK256 0xB8 DUP13 SUB 0xB4 0xDD DUP10 0x4A DUP6 SWAP13 0x5F PUSH20 0x7CD23CC6F98E6DDACB8DEEF4DFC1B406CECF5523 CODECOPY PUSH5 0x736F6C6343 STOP MOD 0xC STOP CALLER "
    }
  }
}