{
  "abi": [
    {
      "inputs": [
        {
          "internalType": "uint256",
          "name": "num",
          "type": "uint256"
        }
      ],
      "name": "getGasCostOfSqrt",
      "outputs": [
        {
          "internalType": "uint256",
          "name": "",
          "type": "uint256"
        }
      ],
      "stateMutability": "view",
      "type": "function"
    },
    {
      "inputs": [
        {
          "internalType": "uint256",
          "name": "num",
          "type": "uint256"
        }
      ],
      "name": "sqrt",
      "outputs": [
        {
          "internalType": "uint256",
          "name": "",
          "type": "uint256"
        }
      ],
      "stateMutability": "pure",
      "type": "function"
    }
  ],
  "evm": {
    "bytecode": {
      "linkReferences": {},
      "object": "608060405234801561001057600080fd5b5061023c806100206000396000f3fe608060405234801561001057600080fd5b50600436106100365760003560e01c8063677342ce1461003b578063821f49241461006a575b600080fd5b6100586004803603602081101561005157600080fd5b5035610087565b60408051918252519081900360200190f35b6100586004803603602081101561008057600080fd5b503561009a565b6000610092826100b3565b90505b919050565b6000805a90506100a9836100b3565b505a900392915050565b6000816100c257506000610095565b81600170010000000000000000000000000000000082106100e85760809190911c9060401b5b6801000000000000000082106101035760409190911c9060201b5b640100000000821061011a5760209190911c9060101b5b62010000821061012f5760109190911c9060081b5b61010082106101435760089190911c9060041b5b601082106101565760049190911c9060021b5b600882106101625760011b5b600181858161016d57fe5b048201901c9050600181858161017f57fe5b048201901c9050600181858161019157fe5b048201901c905060018185816101a357fe5b048201901c905060018185816101b557fe5b048201901c905060018185816101c757fe5b048201901c905060018185816101d957fe5b048201901c905060008185816101eb57fe5b0490508082106101fb57806101fd565b815b9594505050505056fea2646970667358221220662f56a8aaaa45babf06b7e28a3e17cb8b6d7a225708519fa3b9432482209f7c64736f6c634300060c0033",
      "opcodes": "PUSH1 0x80 PUSH1 0x40 MSTORE CALLVALUE DUP1 ISZERO PUSH2 0x10 JUMPI PUSH1 0x0 DUP1 REVERT JUMPDEST POP PUSH2 0x23C DUP1 PUSH2 0x20 PUSH1 0x0 CODECOPY PUSH1 0x0 RETURN INVALID PUSH1 0x80 PUSH1 0x40 MSTORE CALLVALUE DUP1 ISZERO PUSH2 0x10 JUMPI PUSH1 0x0 DUP1 REVERT JUMPDEST POP PUSH1 0x4 CALLDATASIZE LT PUSH2 0x36 JUMPI PUSH1 0x0 CALLDATALOAD PUSH1 0xE0 SHR DUP1 PUSH4 0x677342CE EQ PUSH2 0x3B JUMPI DUP1 PUSH4 0x821F4924 EQ PUSH2 0x6A JUMPI JUMPDEST PUSH1 0x0 DUP1 REVERT JUMPDEST PUSH2 0x58 PUSH1 0x4 DUP1 CALLDATASIZE SUB PUSH1 0x20 DUP2 LT ISZERO PUSH2 0x51 JUMPI PUSH1 0x0 DUP1 REVERT JUMPDEST POP CALLDATALOAD PUSH2 0x87 JUMP JUMPDEST PUSH1 0x40 DUP1 MLOAD SWAP2 DUP3 MSTORE MLOAD SWAP1 DUP2 SWAP1 SUB PUSH1 0x20 ADD SWAP1 RETURN JUMPDEST PUSH2 0x58 PUSH1 0x4 DUP1 CALLDATASIZE SUB PUSH1 0x20 DUP2 LT ISZERO PUSH2 0x80 JUMPI PUSH1 0x0 DUP1 REVERT JUMPDEST POP CALLDATALOAD PUSH2 0x9A JUMP JUMPDEST PUSH1 0x0 PUSH2 0x92 DUP3 PUSH2 0xB3 JUMP JUMPDEST SWAP1 POP JUMPDEST SWAP2 SWAP1 POP JUMP JUMPDEST PUSH1 0x0 DUP1 GAS SWAP1 POP PUSH2 0xA9 DUP4 PUSH2 0xB3 JUMP JUMPDEST POP GAS SWAP1 SUB SWAP3 SWAP2 POP POP JUMP JUMPDEST PUSH1 0x0 DUP2 PUSH2 0xC2 JUMPI POP PUSH1 0x0 PUSH2 0x95 JUMP JUMPDEST DUP2 PUSH1 0x1 PUSH17 0x100000000000000000000000000000000 DUP3 LT PUSH2 0xE8 JUMPI PUSH1 0x80 SWAP2 SWAP1 SWAP2 SHR SWAP1 PUSH1 0x40 SHL JUMPDEST PUSH9 0x10000000000000000 DUP3 LT PUSH2 0x103 JUMPI PUSH1 0x40 SWAP2 SWAP1 SWAP2 SHR SWAP1 PUSH1 0x20 SHL JUMPDEST PUSH5 0x100000000 DUP3 LT PUSH2 0x11A JUMPI PUSH1 0x20 SWAP2 SWAP1 SWAP2 SHR SWAP1 PUSH1 0x10 SHL JUMPDEST PUSH3 0x10000 DUP3 LT PUSH2 0x12F JUMPI PUSH1 0x10 SWAP2 SWAP1 SWAP2 SHR SWAP1 PUSH1 0x8 SHL JUMPDEST PUSH2 0x100 DUP3 LT PUSH2 0x143 JUMPI PUSH1 0x8 SWAP2 SWAP1 SWAP2 SHR SWAP1 PUSH1 0x4 SHL JUMPDEST PUSH1 0x10 DUP3 LT PUSH2 0x156 JUMPI PUSH1 0x4 SWAP2 SWAP1 SWAP2 SHR SWAP1 PUSH1 0x2 SHL JUMPDEST PUSH1 0x8 DUP3 LT PUSH2 0x162 JUMPI PUSH1 0x1 SHL JUMPDEST PUSH1 0x1 DUP2 DUP6 DUP2 PUSH2 0x16D JUMPI INVALID JUMPDEST DIV DUP3 ADD SWAP1 SHR SWAP1 POP PUSH1 0x1 DUP2 DUP6 DUP2 PUSH2 0x17F JUMPI INVALID JUMPDEST DIV DUP3 ADD SWAP1 SHR SWAP1 POP PUSH1 0x1 DUP2 DUP6 DUP2 PUSH2 0x191 JUMPI INVALID JUMPDEST DIV DUP3 ADD SWAP1 SHR SWAP1 POP PUSH1 0x1 DUP2 DUP6 DUP2 PUSH2 0x1A3 JUMPI INVALID JUMPDEST DIV DUP3 ADD SWAP1 SHR SWAP1 POP PUSH1 0x1 DUP2 DUP6 DUP2 PUSH2 0x1B5 JUMPI INVALID JUMPDEST DIV DUP3 ADD SWAP1 SHR SWAP1 POP PUSH1 0x1 DUP2 DUP6 DUP2 PUSH2 0x1C7 JUMPI INVALID JUMPDEST DIV DUP3 ADD SWAP1 SHR SWAP1 POP PUSH1 0x1 DUP2 DUP6 DUP2 PUSH2 0x1D9 JUMPI INVALID JUMPDEST DIV DUP3 ADD SWAP1 SHR SWAP1 POP PUSH1 0x0 DUP2 DUP6 DUP2 PUSH2 0x1EB JUMPI INVALID JUMPDEST DIV SWAP1 POP DUP1 DUP3 LT PUSH2 0x1FB JUMPI DUP1 PUSH2 0x1FD JUMP JUMPDEST DUP2 JUMPDEST SWAP6 SWAP5 POP POP POP POP POP JUMP INVALID LOG2 PUSH5 0x6970667358 0x22 SLT KECCAK256 PUSH7 0x2F56A8AAAA45BA 0xBF MOD 0xB7 0xE2 DUP11 RETURNDATACOPY OR 0xCB DUP12 PUSH14 0x7A225708519FA3B9432482209F7C PUSH5 0x736F6C6343 STOP MOD 0xC STOP CALLER "
    }
  }
}