{
  "abi": [
    {
      "inputs": [
        {
          "internalType": "uint256",
          "name": "input",
          "type": "uint256"
        }
      ],
      "name": "leastSignificantBitInvariant",
      "outputs": [],
      "stateMutability": "pure",
      "type": "function"
    },
    {
      "inputs": [
        {
          "internalType": "uint256",
          "name": "input",
          "type": "uint256"
        }
      ],
      "name": "mostSignificantBitInvariant",
      "outputs": [],
      "stateMutability": "pure",
      "type": "function"
    }
  ],
  "evm": {
    "bytecode": {
      "linkReferences": {},
      "object": "608060405234801561001057600080fd5b506104a8806100206000396000f3fe608060405234801561001057600080fd5b50600436106100365760003560e01c80632d711e0c1461003b578063f94ac90e1461005a575b600080fd5b6100586004803603602081101561005157600080fd5b5035610077565b005b6100586004803603602081101561007057600080fd5b50356100c9565b600061008282610106565b905060ff811660020a821661009357fe5b7fffffffffffffffffffffffffffffffffffffffffffffffffffffffffffffffff60ff821660020a018216156100c557fe5b5050565b60006100d482610336565b90508060ff1660020a8210156100e657fe5b8060ff1660ff148061010057508060010160ff1660020a82105b6100c557fe5b6000808211610160576040517f08c379a00000000000000000000000000000000000000000000000000000000081526004018080602001828103825260228152602001806104516022913960400191505060405180910390fd5b5060ff6fffffffffffffffffffffffffffffffff8216156101a2577fffffffffffffffffffffffffffffffffffffffffffffffffffffffffffffff80016101aa565b608082901c91505b67ffffffffffffffff8216156101e1577fffffffffffffffffffffffffffffffffffffffffffffffffffffffffffffffc0016101e9565b604082901c91505b63ffffffff82161561021c577fffffffffffffffffffffffffffffffffffffffffffffffffffffffffffffffe001610224565b602082901c91505b61ffff821615610255577ffffffffffffffffffffffffffffffffffffffffffffffffffffffffffffffff00161025d565b601082901c91505b60ff82161561028d577ffffffffffffffffffffffffffffffffffffffffffffffffffffffffffffffff801610295565b600882901c91505b600f8216156102c5577ffffffffffffffffffffffffffffffffffffffffffffffffffffffffffffffffc016102cd565b600482901c91505b60038216156102fd577ffffffffffffffffffffffffffffffffffffffffffffffffffffffffffffffffe01610305565b600282901c91505b6001821615610331577fffffffffffffffffffffffffffffffffffffffffffffffffffffffffffffffff015b919050565b6000808211610390576040517f08c379a00000000000000000000000000000000000000000000000000000000081526004018080602001828103825260218152602001806104306021913960400191505060405180910390fd5b70010000000000000000000000000000000082106103b057608091821c91015b6801000000000000000082106103c857604091821c91015b64010000000082106103dc57602091821c91015b6201000082106103ee57601091821c91015b61010082106103ff57600891821c91015b6010821061040f57600491821c91015b6004821061041f57600291821c91015b600282106103315760010191905056fe4269744d6174683a3a6d6f73745369676e69666963616e744269743a207a65726f4269744d6174683a3a6c656173745369676e69666963616e744269743a207a65726fa2646970667358221220b5e4c2a9abe65ee5417eae4874fb114513df80e7dc145135422666c7aae5b1ce64736f6c634300060c0033",
      "opcodes": "PUSH1 0x80 PUSH1 0x40 MSTORE CALLVALUE DUP1 ISZERO PUSH2 0x10 JUMPI PUSH1 0x0 DUP1 REVERT JUMPDEST POP PUSH2 0x4A8 DUP1 PUSH2 0x20 PUSH1 0x0 CODECOPY PUSH1 0x0 RETURN INVALID PUSH1 0x80 PUSH1 0x40 MSTORE CALLVALUE DUP1 ISZERO PUSH2 0x10 JUMPI PUSH1 0x0 DUP1 REVERT JUMPDEST POP PUSH1 0x4 CALLDATASIZE LT PUSH2 0x36 JUMPI PUSH1 0x0 CALLDATALOAD PUSH1 0xE0 SHR DUP1 PUSH4 0x2D711E0C EQ PUSH2 0x3B JUMPI DUP1 PUSH4 0xF94AC90E EQ PUSH2 0x5A JUMPI JUMPDEST PUSH1 0x0 DUP1 REVERT JUMPDEST PUSH2 0x58 PUSH1 0x4 DUP1 CALLDATASIZE SUB PUSH1 0x20 DUP2 LT ISZERO PUSH2 0x51 JUMPI PUSH1 0x0 DUP1 REVERT JUMPDEST POP CALLDATALOAD PUSH2 0x77 JUMP JUMPDEST STOP JUMPDEST PUSH2 0x58 PUSH1 0x4 DUP1 CALLDATASIZE SUB PUSH1 0x20 DUP2 LT ISZERO PUSH2 0x70 JUMPI PUSH1 0x0 DUP1 REVERT JUMPDEST POP CALLDATALOAD PUSH2 0xC9 JUMP JUMPDEST PUSH1 0x0 PUSH2 0x82 DUP3 PUSH2 0x106 JUMP JUMPDEST SWAP1 POP PUSH1 0xFF DUP2 AND PUSH1 0x2 EXP DUP3 AND PUSH2 0x93 JUMPI INVALID JUMPDEST PUSH32 0xFFFFFFFFFFFFFFFFFFFFFFFFFFFFFFFFFFFFFFFFFFFFFFFFFFFFFFFFFFFFFFFF PUSH1 0xFF DUP3 AND PUSH1 0x2 EXP ADD DUP3 AND ISZERO PUSH2 0xC5 JUMPI INVALID JUMPDEST POP POP JUMP JUMPDEST PUSH1 0x0 PUSH2 0xD4 DUP3 PUSH2 0x336 JUMP JUMPDEST SWAP1 POP DUP1 PUSH1 0xFF AND PUSH1 0x2 EXP DUP3 LT ISZERO PUSH2 0xE6 JUMPI INVALID JUMPDEST DUP1 PUSH1 0xFF AND PUSH1 0xFF EQ DUP1 PUSH2 0x100 JUMPI POP DUP1 PUSH1 0x1 ADD PUSH1 0xFF AND PUSH1 0x2 EXP DUP3 LT JUMPDEST PUSH2 0xC5 JUMPI INVALID JUMPDEST PUSH1 0x0 DUP1 DUP3 GT PUSH2 0x160 JUMPI PUSH1 0x40 MLOAD PUSH32 0x8C379A000000000000000000000000000000000000000000000000000000000 DUP2 MSTORE PUSH1 0x4 ADD DUP1 DUP1 PUSH1 0x20 ADD DUP3 DUP2 SUB DUP3 MSTORE PUSH1 0x22 DUP2 MSTORE PUSH1 0x20 ADD DUP1 PUSH2 0x451 PUSH1 0x22 SWAP2 CODECOPY PUSH1 0x40 ADD SWAP2 POP POP PUSH1 0x40 MLOAD DUP1 SWAP2 SUB SWAP1 REVERT JUMPDEST POP PUSH1 0xFF PUSH16 0xFFFFFFFFFFFFFFFFFFFFFFFFFFFFFFFF DUP3 AND ISZERO PUSH2 0x1A2 JUMPI PUSH32 0xFFFFFFFFFFFFFFFFFFFFFFFFFFFFFFFFFFFFFFFFFFFFFFFFFFFFFFFFFFFFFF80 ADD PUSH2 0x1AA JUMP JUMPDEST PUSH1 0x80 DUP3 SWAP1 SHR SWAP2 POP JUMPDEST PUSH8 0xFFFFFFFFFFFFFFFF DUP3 AND ISZERO PUSH2 0x1E1 JUMPI PUSH32 0xFFFFFFFFFFFFFFFFFFFFFFFFFFFFFFFFFFFFFFFFFFFFFFFFFFFFFFFFFFFFFFC0 ADD PUSH2 0x1E9 JUMP JUMPDEST PUSH1 0x40 DUP3 SWAP1 SHR SWAP2 POP JUMPDEST PUSH4 0xFFFFFFFF DUP3 AND ISZERO PUSH2 0x21C JUMPI PUSH32 0xFFFFFFFFFFFFFFFFFFFFFFFFFFFFFFFFFFFFFFFFFFFFFFFFFFFFFFFFFFFFFFE0 ADD PUSH2 0x224 JUMP JUMPDEST PUSH1 0x20 DUP3 SWAP1 SHR SWAP2 POP JUMPDEST PUSH2 0xFFFF DUP3 AND ISZERO PUSH2 0x255 JUMPI PUSH32 0xFFFFFFFFFFFFFFFFFFFFFFFFFFFFFFFFFFFFFFFFFFFFFFFFFFFFFFFFFFFFFFF0 ADD PUSH2 0x25D JUMP JUMPDEST PUSH1 0x10 DUP3 SWAP1 SHR SWAP2 POP JUMPDEST PUSH1 0xFF DUP3 AND ISZERO PUSH2 0x28D JUMPI PUSH32 0xFFFFFFFFFFFFFFFFFFFFFFFFFFFFFFFFFFFFFFFFFFFFFFFFFFFFFFFFFFFFFFF8 ADD PUSH2 0x295 JUMP JUMPDEST PUSH1 0x8 DUP3 SWAP1 SHR SWAP2 POP JUMPDEST PUSH1 0xF DUP3 AND ISZERO PUSH2 0x2C5 JUMPI PUSH32 0xFFFFFFFFFFFFFFFFFFFFFFFFFFFFFFFFFFFFFFFFFFFFFFFFFFFFFFFFFFFFFFFC ADD PUSH2 0x2CD JUMP JUMPDEST PUSH1 0x4 DUP3 SWAP1 SHR SWAP2 POP JUMPDEST PUSH1 0x3 DUP3 AND ISZERO PUSH2 0x2FD JUMPI PUSH32 0xFFFFFFFFFFFFFFFFFFFFFFFFFFFFFFFFFFFFFFFFFFFFFFFFFFFFFFFFFFFFFFFE ADD PUSH2 0x305 JUMP JUMPDEST PUSH1 0x2 DUP3 SWAP1 SHR SWAP2 POP JUMPDEST PUSH1 0x1 DUP3 AND ISZERO PUSH2 0x331 JUMPI PUSH32 0xFFFFFFFFFFFFFFFFFFFFFFFFFFFFFFFFFFFFFFFFFFFFFFFFFFFFFFFFFFFFFFFF ADD JUMPDEST SWAP2 SWAP1 POP JUMP JUMPDEST PUSH1 0x0 DUP1 DUP3 GT PUSH2 0x390 JUMPI PUSH1 0x40 MLOAD PUSH32 0x8C379A000000000000000000000000000000000000000000000000000000000 DUP2 MSTORE PUSH1 0x4 ADD DUP1 DUP1 PUSH1 0x20 ADD DUP3 DUP2 SUB DUP3 MSTORE PUSH1 0x21 DUP2 MSTORE PUSH1 0x20 ADD DUP1 PUSH2 0x430 PUSH1 0x21 SWAP2 CODECOPY PUSH1 0x40 ADD SWAP2 POP POP PUSH1 0x40 MLOAD DUP1 SWAP2 SUB SWAP1 REVERT JUMPDEST PUSH17 0x100000000000000000000000000000000 DUP3 LT PUSH2 0x3B0 JUMPI PUSH1 0x80 SWAP2 DUP3 SHR SWAP2 ADD JUMPDEST PUSH9 0x10000000000000000 DUP3 LT PUSH2 0x3C8 JUMPI PUSH1 0x40 SWAP2 DUP3 SHR SWAP2 ADD JUMPDEST PUSH5 0x100000000 DUP3 LT PUSH2 0x3DC JUMPI PUSH1 0x20 SWAP2 DUP3 SHR SWAP2 ADD JUMPDEST PUSH3 0x10000 DUP3 LT PUSH2 0x3EE JUMPI PUSH1 0x10 SWAP2 DUP3 SHR SWAP2 ADD JUMPDEST PUSH2 0x100 DUP3 LT PUSH2 0x3FF JUMPI PUSH1 0x8 SWAP2 DUP3 SHR SWAP2 ADD JUMPDEST PUSH1 0x10 DUP3 LT PUSH2 0x40F JUMPI PUSH1 0x4 SWAP2 DUP3 SHR SWAP2 ADD JUMPDEST PUSH1 0x4 DUP3 LT PUSH2 0x41F JUMPI PUSH1 0x2 SWAP2 DUP3 SHR SWAP2 ADD JUMPDEST PUSH1 0x2 DUP3 LT PUSH2 0x331 JUMPI PUSH1 0x1 ADD SWAP2 SWAP1 POP JUMP INVALID TIMESTAMP PUSH10 0x744D6174683A3A6D6F73 PUSH21 0x5369676E69666963616E744269743A207A65726F42 PUSH10 0x744D6174683A3A6C6561 PUSH20 0x745369676E69666963616E744269743A207A6572 PUSH16 0xA2646970667358221220B5E4C2A9ABE6 0x5E 0xE5 COINBASE PUSH31 0xAE4874FB114513DF80E7DC145135422666C7AAE5B1CE64736F6C634300060C STOP CALLER "
    }
  }
}