{
  "abi": [
    {
      "inputs": [
        {
          "components": [
            {
              "internalType": "uint224",
              "name": "_x",
              "type": "uint224"
            }
          ],
          "internalType": "struct FixedPoint.uq112x112",
          "name": "self",
          "type": "tuple"
        }
      ],
      "name": "decode",
      "outputs": [
        {
          "internalType": "uint112",
          "name": "",
          "type": "uint112"
        }
      ],
      "stateMutability": "pure",
      "type": "function"
    },
    {
      "inputs": [
        {
          "components": [
            {
              "internalType": "uint256",
              "name": "_x",
              "type": "uint256"
            }
          ],
          "internalType": "struct FixedPoint.uq144x112",
          "name": "self",
          "type": "tuple"
        }
      ],
      "name": "decode144",
      "outputs": [
        {
          "internalType": "uint144",
          "name": "",
          "type": "uint144"
        }
      ],
      "stateMutability": "pure",
      "type": "function"
    },
    {
      "inputs": [
        {
          "components": [
            {
              "internalType": "uint224",
              "name": "_x",
              "type": "uint224"
            }
          ],
          "internalType": "struct FixedPoint.uq112x112",
          "name": "self",
          "type": "tuple"
        },
        {
          "components": [
            {
              "internalType": "uint224",
              "name": "_x",
              "type": "uint224"
            }
          ],
          "internalType": "struct FixedPoint.uq112x112",
          "name": "other",
          "type": "tuple"
        }
      ],
      "name": "divuq",
      "outputs": [
        {
          "components": [
            {
              "internalType": "uint224",
              "name": "_x",
              "type": "uint224"
            }
          ],
          "internalType": "struct FixedPoint.uq112x112",
          "name": "",
          "type": "tuple"
        }
      ],
      "stateMutability": "pure",
      "type": "function"
    },
    {
      "inputs": [
        {
          "internalType": "uint112",
          "name": "x",
          "type": "uint112"
        }
      ],
      "name": "encode",
      "outputs": [
        {
          "components": [
            {
              "internalType": "uint224",
              "name": "_x",
              "type": "uint224"
            }
          ],
          "internalType": "struct FixedPoint.uq112x112",
          "name": "",
          "type": "tuple"
        }
      ],
      "stateMutability": "pure",
      "type": "function"
    },
    {
      "inputs": [
        {
          "internalType": "uint144",
          "name": "x",
          "type": "uint144"
        }
      ],
      "name": "encode144",
      "outputs": [
        {
          "components": [
            {
              "internalType": "uint256",
              "name": "_x",
              "type": "uint256"
            }
          ],
          "internalType": "struct FixedPoint.uq144x112",
          "name": "",
          "type": "tuple"
        }
      ],
      "stateMutability": "pure",
      "type": "function"
    },
    {
      "inputs": [
        {
          "internalType": "uint256",
          "name": "numerator",
          "type": "uint256"
        },
        {
          "internalType": "uint256",
          "name": "denominator",
          "type": "uint256"
        }
      ],
      "name": "fraction",
      "outputs": [
        {
          "components": [
            {
              "internalType": "uint224",
              "name": "_x",
              "type": "uint224"
            }
          ],
          "internalType": "struct FixedPoint.uq112x112",
          "name": "",
          "type": "tuple"
        }
      ],
      "stateMutability": "pure",
      "type": "function"
    },
    {
      "inputs": [
        {
          "components": [
            {
              "internalType": "uint224",
              "name": "_x",
              "type": "uint224"
            }
          ],
          "internalType": "struct FixedPoint.uq112x112",
          "name": "self",
          "type": "tuple"
        },
        {
          "components": [
            {
              "internalType": "uint224",
              "name": "_x",
              "type": "uint224"
            }
          ],
          "internalType": "struct FixedPoint.uq112x112",
          "name": "other",
          "type": "tuple"
        }
      ],
      "name": "getGasCostOfDivuq",
      "outputs": [
        {
          "internalType": "uint256",
          "name": "",
          "type": "uint256"
        }
      ],
      "stateMutability": "view",
      "type": "function"
    },
    {
      "inputs": [
        {
          "internalType": "uint256",
          "name": "numerator",
          "type": "uint256"
        },
        {
          "internalType": "uint256",
          "name": "denominator",
          "type": "uint256"
        }
      ],
      "name": "getGasCostOfFraction",
      "outputs": [
        {
          "internalType": "uint256",
          "name": "",
          "type": "uint256"
        }
      ],
      "stateMutability": "view",
      "type": "function"
    },
    {
      "inputs": [
        {
          "components": [
            {
              "internalType": "uint224",
              "name": "_x",
              "type": "uint224"
            }
          ],
          "internalType": "struct FixedPoint.uq112x112",
          "name": "self",
          "type": "tuple"
        },
        {
          "components": [
            {
              "internalType": "uint224",
              "name": "_x",
              "type": "uint224"
            }
          ],
          "internalType": "struct FixedPoint.uq112x112",
          "name": "other",
          "type": "tuple"
        }
      ],
      "name": "getGasCostOfMuluq",
      "outputs": [
        {
          "internalType": "uint256",
          "name": "",
          "type": "uint256"
        }
      ],
      "stateMutability": "view",
      "type": "function"
    },
    {
      "inputs": [
        {
          "components": [
            {
              "internalType": "uint224",
              "name": "_x",
              "type": "uint224"
            }
          ],
          "internalType": "struct FixedPoint.uq112x112",
          "name": "self",
          "type": "tuple"
        }
      ],
      "name": "getGasCostOfSqrt",
      "outputs": [
        {
          "internalType": "uint256",
          "name": "",
          "type": "uint256"
        }
      ],
      "stateMutability": "view",
      "type": "function"
    },
    {
      "inputs": [
        {
          "components": [
            {
              "internalType": "uint224",
              "name": "_x",
              "type": "uint224"
            }
          ],
          "internalType": "struct FixedPoint.uq112x112",
          "name": "self",
          "type": "tuple"
        },
        {
          "internalType": "uint256",
          "name": "y",
          "type": "uint256"
        }
      ],
      "name": "mul",
      "outputs": [
        {
          "components": [
            {
              "internalType": "uint256",
              "name": "_x",
              "type": "uint256"
            }
          ],
          "internalType": "struct FixedPoint.uq144x112",
          "name": "",
          "type": "tuple"
        }
      ],
      "stateMutability": "pure",
      "type": "function"
    },
    {
      "inputs": [
        {
          "components": [
            {
              "internalType": "uint224",
              "name": "_x",
              "type": "uint224"
            }
          ],
          "internalType": "struct FixedPoint.uq112x112",
          "name": "self",
          "type": "tuple"
        },
        {
          "internalType": "int256",
          "name": "y",
          "type": "int256"
        }
      ],
      "name": "muli",
      "outputs": [
        {
          "internalType": "int256",
          "name": "",
          "type": "int256"
        }
      ],
      "stateMutability": "pure",
      "type": "function"
    },
    {
      "inputs": [
        {
          "components": [
            {
              "internalType": "uint224",
              "name": "_x",
              "type": "uint224"
            }
          ],
          "internalType": "struct FixedPoint.uq112x112",
          "name": "self",
          "type": "tuple"
        },
        {
          "components": [
            {
              "internalType": "uint224",
              "name": "_x",
              "type": "uint224"
            }
          ],
          "internalType": "struct FixedPoint.uq112x112",
          "name": "other",
          "type": "tuple"
        }
      ],
      "name": "muluq",
      "outputs": [
        {
          "components": [
            {
              "internalType": "uint224",
              "name": "_x",
              "type": "uint224"
            }
          ],
          "internalType": "struct FixedPoint.uq112x112",
          "name": "",
          "type": "tuple"
        }
      ],
      "stateMutability": "pure",
      "type": "function"
    },
    {
      "inputs": [
        {
          "components": [
            {
              "internalType": "uint224",
              "name": "_x",
              "type": "uint224"
            }
          ],
          "internalType": "struct FixedPoint.uq112x112",
          "name": "self",
          "type": "tuple"
        }
      ],
      "name": "reciprocal",
      "outputs": [
        {
          "components": [
            {
              "internalType": "uint224",
              "name": "_x",
              "type": "uint224"
            }
          ],
          "internalType": "struct FixedPoint.uq112x112",
          "name": "",
          "type": "tuple"
        }
      ],
      "stateMutability": "pure",
      "type": "function"
    },
    {
      "inputs": [
        {
          "components": [
            {
              "internalType": "uint224",
              "name": "_x",
              "type": "uint224"
            }
          ],
          "internalType": "struct FixedPoint.uq112x112",
          "name": "self",
          "type": "tuple"
        }
      ],
      "name": "sqrt",
      "outputs": [
        {
          "components": [
            {
              "internalType": "uint224",
              "name": "_x",
              "type": "uint224"
            }
          ],
          "internalType": "struct FixedPoint.uq112x112",
          "name": "",
          "type": "tuple"
        }
      ],
      "stateMutability": "pure",
      "type": "function"
    }
  ],
  "evm": {
    "bytecode": {
      "linkReferences": {},
      "object": "608060405234801561001057600080fd5b506118ae806100206000396000f3fe608060405234801561001057600080fd5b50600436106100f55760003560e01c80636d173f7111610097578063c814e31411610066578063c814e31414610215578063ca2d029914610228578063ca74fcc01461023b578063d993d3791461024e576100f5565b80636d173f71146101bc57806389258451146101cf578063af35b769146101e2578063b1acad5c14610202576100f5565b80634fd04a40116100d35780634fd04a40146101495780635a606689146101695780635f9f4c3b1461017c578063644a478b1461019c576100f5565b80630f1530e4146100fa57806331f92b13146101235780633f1626c814610136575b600080fd5b61010d61010836600461146b565b610261565b60405161011a91906117e5565b60405180910390f35b61010d61013136600461130c565b61027c565b61010d61014436600461130c565b6102a3565b61015c61015736600461130c565b6102c2565b60405161011a9190611817565b61010d610177366004611351565b6102db565b61018f61018a36600461130c565b610309565b60405161011a9190611832565b6101af6101aa36600461146b565b610322565b60405161011a919061148c565b6101af6101ca366004611351565b61033d565b6101af6101dd366004611327565b610364565b6101f56101f0366004611385565b61037e565b60405161011a919061180d565b6101af61021036600461130c565b61039e565b6101f5610223366004611439565b6103c0565b61010d61023636600461140b565b6103d1565b61010d610249366004611351565b6103e2565b6101af61025c366004611351565b610410565b6102696112d0565b6102738383610437565b90505b92915050565b6102846112d0565b61029b61029636849003840184611397565b6105c6565b90505b919050565b6102ab6112d0565b61029b6102bd36849003840184611397565b6106fd565b600061029b6102d636849003840184611397565b61085d565b6102e36112d0565b6102736102f536859003850185611397565b61030436859003850185611397565b610874565b600061029b61031d368490038401846113e6565b610af0565b6000805a90506103328484610437565b505a90039392505050565b6000805a905061033261035536869003860186611397565b61030436869003860186611397565b600061027361037836859003850185611397565b83610af7565b6103866112e2565b61027361039836859003850185611397565b83610bbe565b6000805a90506103b66102bd36859003850185611397565b505a900392915050565b6103c86112e2565b61029b82610c4c565b6103d96112d0565b61029b82610c8d565b6103ea6112d0565b6102736103fc36859003850185611397565b61040b36859003850185611397565b610cca565b6000805a905061033261042836869003860186611397565b61040b36869003860186611397565b61043f6112d0565b60008211610482576040517f08c379a0000000000000000000000000000000000000000000000000000000008152600401610479906115bd565b60405180910390fd5b8261049c5750604080516020810190915260008152610276565b71ffffffffffffffffffffffffffffffffffff831161055257600082607085901b816104c457fe5b0490507bffffffffffffffffffffffffffffffffffffffffffffffffffffffff81111561051d576040517f08c379a000000000000000000000000000000000000000000000000000000000815260040161047990611651565b6040518060200160405280827bffffffffffffffffffffffffffffffffffffffffffffffffffffffff16815250915050610276565b600061056e846e01000000000000000000000000000085610f48565b90507bffffffffffffffffffffffffffffffffffffffffffffffffffffffff81111561051d576040517f08c379a000000000000000000000000000000000000000000000000000000000815260040161047990611651565b6105ce6112d0565b81517bffffffffffffffffffffffffffffffffffffffffffffffffffffffff16610624576040517f08c379a000000000000000000000000000000000000000000000000000000000815260040161047990611788565b81600001517bffffffffffffffffffffffffffffffffffffffffffffffffffffffff1660011415610681576040517f08c379a000000000000000000000000000000000000000000000000000000000815260040161047990611753565b604051806020016040528083600001517bffffffffffffffffffffffffffffffffffffffffffffffffffffffff167c0100000000000000000000000000000000000000000000000000000000816106d457fe5b047bffffffffffffffffffffffffffffffffffffffffffffffffffffffff168152509050919050565b6107056112d0565b815171ffffffffffffffffffffffffffffffffffff7bffffffffffffffffffffffffffffffffffffffffffffffffffffffff909116116107a0576040518060200160405280610779607085600001517bffffffffffffffffffffffffffffffffffffffffffffffffffffffff16901b610fe8565b7bffffffffffffffffffffffffffffffffffffffffffffffffffffffff169052905061029e565b60006107cd83600001517bffffffffffffffffffffffffffffffffffffffffffffffffffffffff1661113b565b60ff03905060028160ff16816107df57fe5b0681039050604051806020016040528060028360700360ff16816107ff57fe5b0460ff166108348460ff1687600001517bffffffffffffffffffffffffffffffffffffffffffffffffffffffff16901b610fe8565b901b7bffffffffffffffffffffffffffffffffffffffffffffffffffffffff1690529392505050565b5160701c6dffffffffffffffffffffffffffff1690565b61087c6112d0565b82517bffffffffffffffffffffffffffffffffffffffffffffffffffffffff1615806108c5575081517bffffffffffffffffffffffffffffffffffffffffffffffffffffffff16155b156108df5750604080516020810190915260008152610276565b825182516dffffffffffffffffffffffffffff607083811c8216938216929081901c82169190811690828502908285029083870290858702907bffffffffffffffffffffffffffffffffffffffffffffffffffffffff8516111561096f576040517f08c379a0000000000000000000000000000000000000000000000000000000008152600401610479906116f6565b6000607060ff16847bffffffffffffffffffffffffffffffffffffffffffffffffffffffff16901c7bffffffffffffffffffffffffffffffffffffffffffffffffffffffff16827bffffffffffffffffffffffffffffffffffffffffffffffffffffffff16847bffffffffffffffffffffffffffffffffffffffffffffffffffffffff16607060ff16887bffffffffffffffffffffffffffffffffffffffffffffffffffffffff16901b7bffffffffffffffffffffffffffffffffffffffffffffffffffffffff1601010190507fffffffffffffffffffffffffffffffffffffffffffffffffffffffffffffffff7bffffffffffffffffffffffffffffffffffffffffffffffffffffffff16811115610ab4576040517f08c379a000000000000000000000000000000000000000000000000000000000815260040161047990611688565b60408051602081019091527bffffffffffffffffffffffffffffffffffffffffffffffffffffffff90911681529b9a5050505050505050505050565b5160701c90565b600080610b4884600001517bffffffffffffffffffffffffffffffffffffffffffffffffffffffff1660008512610b2e5784610b33565b846000035b6e010000000000000000000000000000610f48565b90507f80000000000000000000000000000000000000000000000000000000000000008110610ba3576040517f08c379a0000000000000000000000000000000000000000000000000000000008152600401610479906116bf565b60008312610bb15780610bb6565b806000035b949350505050565b610bc66112e2565b6000821580610c0157505082517bffffffffffffffffffffffffffffffffffffffffffffffffffffffff1682810290838281610bfe57fe5b04145b610c37576040517f08c379a000000000000000000000000000000000000000000000000000000000815260040161047990611586565b60408051602081019091529081529392505050565b610c546112e2565b50604080516020810190915260709190911b7fffffffffffffffffffffffffffffffffffff000000000000000000000000000016815290565b610c956112d0565b50604080516020810190915260709190911b7bffffffffffffffffffffffffffff000000000000000000000000000016815290565b610cd26112d0565b81517bffffffffffffffffffffffffffffffffffffffffffffffffffffffff16610d28576040517f08c379a000000000000000000000000000000000000000000000000000000000815260040161047990611529565b815183517bffffffffffffffffffffffffffffffffffffffffffffffffffffffff90811691161415610d77575060408051602081019091526e0100000000000000000000000000008152610276565b825171ffffffffffffffffffffffffffffffffffff7bffffffffffffffffffffffffffffffffffffffffffffffffffffffff90911611610e5c57815183516000917bffffffffffffffffffffffffffffffffffffffffffffffffffffffff169060701b7fffffffffffffffffffffffffffffffffffff00000000000000000000000000001681610e0357fe5b0490507bffffffffffffffffffffffffffffffffffffffffffffffffffffffff81111561051d576040517f08c379a0000000000000000000000000000000000000000000000000000000008152600401610479906114f2565b6000610ebc6e01000000000000000000000000000085600001517bffffffffffffffffffffffffffffffffffffffffffffffffffffffff1685600001517bffffffffffffffffffffffffffffffffffffffffffffffffffffffff16610f48565b90507bffffffffffffffffffffffffffffffffffffffffffffffffffffffff811115610f14576040517f08c379a0000000000000000000000000000000000000000000000000000000008152600401610479906114f2565b60408051602081019091527bffffffffffffffffffffffffffffffffffffffffffffffffffffffff90911681529392505050565b6000806000610f578686611215565b9150915060008480610f6557fe5b868809905082811115610f79576001820391505b918290039181610f9757848381610f8c57fe5b049350505050610fe1565b848210610fd0576040517f08c379a00000000000000000000000000000000000000000000000000000000081526004016104799061161a565b610fdb838387611260565b93505050505b9392505050565b600081610ff75750600061029e565b816001700100000000000000000000000000000000821061101d5760809190911c9060401b5b6801000000000000000082106110385760409190911c9060201b5b640100000000821061104f5760209190911c9060101b5b6201000082106110645760109190911c9060081b5b61010082106110785760089190911c9060041b5b6010821061108b5760049190911c9060021b5b600882106110975760011b5b60018185816110a257fe5b048201901c905060018185816110b457fe5b048201901c905060018185816110c657fe5b048201901c905060018185816110d857fe5b048201901c905060018185816110ea57fe5b048201901c905060018185816110fc57fe5b048201901c9050600181858161110e57fe5b048201901c9050600081858161112057fe5b0490508082106111305780611132565b815b95945050505050565b6000808211611176576040517f08c379a000000000000000000000000000000000000000000000000000000000815260040161047990611495565b700100000000000000000000000000000000821061119657608091821c91015b6801000000000000000082106111ae57604091821c91015b64010000000082106111c257602091821c91015b6201000082106111d457601091821c91015b61010082106111e557600891821c91015b601082106111f557600491821c91015b6004821061120557600291821c91015b6002821061029e57600101919050565b600080807fffffffffffffffffffffffffffffffffffffffffffffffffffffffffffffffff84860990508385029250828103915082811015611258576001820391505b509250929050565b6000818103821680838161127057fe5b04925080858161127c57fe5b04945080816000038161128b57fe5b60028581038087028203028087028203028087028203028087028203028087028203028087028203029586029003909402930460010193909302939093010292915050565b60408051602081019091526000815290565b6040518060200160405280600081525090565b600060208284031215611306578081fd5b50919050565b60006020828403121561131d578081fd5b61027383836112f5565b60008060408385031215611339578081fd5b61134384846112f5565b946020939093013593505050565b60008060408385031215611363578182fd5b61136d84846112f5565b915061137c84602085016112f5565b90509250929050565b60008060408385031215611339578182fd5b6000602082840312156113a8578081fd5b6113b26020611851565b82357bffffffffffffffffffffffffffffffffffffffffffffffffffffffff811681146113dd578283fd5b81529392505050565b6000602082840312156113f7578081fd5b6114016020611851565b9135825250919050565b60006020828403121561141c578081fd5b81356dffffffffffffffffffffffffffff81168114610fe1578182fd5b60006020828403121561144a578081fd5b813571ffffffffffffffffffffffffffffffffffff81168114610fe1578182fd5b6000806040838503121561147d578182fd5b50508035926020909101359150565b90815260200190565b60208082526021908201527f4269744d6174683a3a6d6f73745369676e69666963616e744269743a207a657260408201527f6f00000000000000000000000000000000000000000000000000000000000000606082015260800190565b6020808252601b908201527f4669786564506f696e743a3a64697675713a206f766572666c6f770000000000604082015260600190565b60208082526023908201527f4669786564506f696e743a3a64697675713a206469766973696f6e206279207a60408201527f65726f0000000000000000000000000000000000000000000000000000000000606082015260800190565b60208082526019908201527f4669786564506f696e743a3a6d756c3a206f766572666c6f7700000000000000604082015260600190565b60208082526026908201527f4669786564506f696e743a3a6672616374696f6e3a206469766973696f6e206260408201527f79207a65726f0000000000000000000000000000000000000000000000000000606082015260800190565b6020808252601a908201527f46756c6c4d6174683a2046554c4c4449565f4f564552464c4f57000000000000604082015260600190565b6020808252601e908201527f4669786564506f696e743a3a6672616374696f6e3a206f766572666c6f770000604082015260600190565b6020808252601f908201527f4669786564506f696e743a3a6d756c75713a2073756d206f766572666c6f7700604082015260600190565b6020808252601a908201527f4669786564506f696e743a3a6d756c693a206f766572666c6f77000000000000604082015260600190565b60208082526021908201527f4669786564506f696e743a3a6d756c75713a207570706572206f766572666c6f60408201527f7700000000000000000000000000000000000000000000000000000000000000606082015260800190565b6020808252818101527f4669786564506f696e743a3a7265636970726f63616c3a206f766572666c6f77604082015260600190565b6020808252602a908201527f4669786564506f696e743a3a7265636970726f63616c3a207265636970726f6360408201527f616c206f66207a65726f00000000000000000000000000000000000000000000606082015260800190565b90517bffffffffffffffffffffffffffffffffffffffffffffffffffffffff16815260200190565b9051815260200190565b6dffffffffffffffffffffffffffff91909116815260200190565b71ffffffffffffffffffffffffffffffffffff91909116815260200190565b60405181810167ffffffffffffffff8111828210171561187057600080fd5b60405291905056fea26469706673582212209ea9578827caf348172200feba0a40476525da4cf324fa03a4853726036f902864736f6c634300060c0033",
      "opcodes": "PUSH1 0x80 PUSH1 0x40 MSTORE CALLVALUE DUP1 ISZERO PUSH2 0x10 JUMPI PUSH1 0x0 DUP1 REVERT JUMPDEST POP PUSH2 0x18AE DUP1 PUSH2 0x20 PUSH1 0x0 CODECOPY PUSH1 0x0 RETURN INVALID PUSH1 0x80 PUSH1 0x40 MSTORE CALLVALUE DUP1 ISZERO PUSH2 0x10 JUMPI PUSH1 0x0 DUP1 REVERT JUMPDEST POP PUSH1 0x4 CALLDATASIZE LT PUSH2 0xF5 JUMPI PUSH1 0x0 CALLDATALOAD PUSH1 0xE0 SHR DUP1 PUSH4 0x6D173F71 GT PUSH2 0x97 JUMPI DUP1 PUSH4 0xC814E314 GT PUSH2 0x66 JUMPI DUP1 PUSH4 0xC814E314 EQ PUSH2 0x215 JUMPI DUP1 PUSH4 0xCA2D0299 EQ PUSH2 0x228 JUMPI DUP1 PUSH4 0xCA74FCC0 EQ PUSH2 0x23B JUMPI DUP1 PUSH4 0xD993D379 EQ PUSH2 0x24E JUMPI PUSH2 0xF5 JUMP JUMPDEST DUP1 PUSH4 0x6D173F71 EQ PUSH2 0x1BC JUMPI DUP1 PUSH4 0x89258451 EQ PUSH2 0x1CF JUMPI DUP1 PUSH4 0xAF35B769 EQ PUSH2 0x1E2 JUMPI DUP1 PUSH4 0xB1ACAD5C EQ PUSH2 0x202 JUMPI PUSH2 0xF5 JUMP JUMPDEST DUP1 PUSH4 0x4FD04A40 GT PUSH2 0xD3 JUMPI DUP1 PUSH4 0x4FD04A40 EQ PUSH2 0x149 JUMPI DUP1 PUSH4 0x5A606689 EQ PUSH2 0x169 JUMPI DUP1 PUSH4 0x5F9F4C3B EQ PUSH2 0x17C JUMPI DUP1 PUSH4 0x644A478B EQ PUSH2 0x19C JUMPI PUSH2 0xF5 JUMP JUMPDEST DUP1 PUSH4 0xF1530E4 EQ PUSH2 0xFA JUMPI DUP1 PUSH4 0x31F92B13 EQ PUSH2 0x123 JUMPI DUP1 PUSH4 0x3F1626C8 EQ PUSH2 0x136 JUMPI JUMPDEST PUSH1 0x0 DUP1 REVERT JUMPDEST PUSH2 0x10D PUSH2 0x108 CALLDATASIZE PUSH1 0x4 PUSH2 0x146B JUMP JUMPDEST PUSH2 0x261 JUMP JUMPDEST PUSH1 0x40 MLOAD PUSH2 0x11A SWAP2 SWAP1 PUSH2 0x17E5 JUMP JUMPDEST PUSH1 0x40 MLOAD DUP1 SWAP2 SUB SWAP1 RETURN JUMPDEST PUSH2 0x10D PUSH2 0x131 CALLDATASIZE PUSH1 0x4 PUSH2 0x130C JUMP JUMPDEST PUSH2 0x27C JUMP JUMPDEST PUSH2 0x10D PUSH2 0x144 CALLDATASIZE PUSH1 0x4 PUSH2 0x130C JUMP JUMPDEST PUSH2 0x2A3 JUMP JUMPDEST PUSH2 0x15C PUSH2 0x157 CALLDATASIZE PUSH1 0x4 PUSH2 0x130C JUMP JUMPDEST PUSH2 0x2C2 JUMP JUMPDEST PUSH1 0x40 MLOAD PUSH2 0x11A SWAP2 SWAP1 PUSH2 0x1817 JUMP JUMPDEST PUSH2 0x10D PUSH2 0x177 CALLDATASIZE PUSH1 0x4 PUSH2 0x1351 JUMP JUMPDEST PUSH2 0x2DB JUMP JUMPDEST PUSH2 0x18F PUSH2 0x18A CALLDATASIZE PUSH1 0x4 PUSH2 0x130C JUMP JUMPDEST PUSH2 0x309 JUMP JUMPDEST PUSH1 0x40 MLOAD PUSH2 0x11A SWAP2 SWAP1 PUSH2 0x1832 JUMP JUMPDEST PUSH2 0x1AF PUSH2 0x1AA CALLDATASIZE PUSH1 0x4 PUSH2 0x146B JUMP JUMPDEST PUSH2 0x322 JUMP JUMPDEST PUSH1 0x40 MLOAD PUSH2 0x11A SWAP2 SWAP1 PUSH2 0x148C JUMP JUMPDEST PUSH2 0x1AF PUSH2 0x1CA CALLDATASIZE PUSH1 0x4 PUSH2 0x1351 JUMP JUMPDEST PUSH2 0x33D JUMP JUMPDEST PUSH2 0x1AF PUSH2 0x1DD CALLDATASIZE PUSH1 0x4 PUSH2 0x1327 JUMP JUMPDEST PUSH2 0x364 JUMP JUMPDEST PUSH2 0x1F5 PUSH2 0x1F0 CALLDATASIZE PUSH1 0x4 PUSH2 0x1385 JUMP JUMPDEST PUSH2 0x37E JUMP JUMPDEST PUSH1 0x40 MLOAD PUSH2 0x11A SWAP2 SWAP1 PUSH2 0x180D JUMP JUMPDEST PUSH2 0x1AF PUSH2 0x210 CALLDATASIZE PUSH1 0x4 PUSH2 0x130C JUMP JUMPDEST PUSH2 0x39E JUMP JUMPDEST PUSH2 0x1F5 PUSH2 0x223 CALLDATASIZE PUSH1 0x4 PUSH2 0x1439 JUMP JUMPDEST PUSH2 0x3C0 JUMP JUMPDEST PUSH2 0x10D PUSH2 0x236 CALLDATASIZE PUSH1 0x4 PUSH2 0x140B JUMP JUMPDEST PUSH2 0x3D1 JUMP JUMPDEST PUSH2 0x10D PUSH2 0x249 CALLDATASIZE PUSH1 0x4 PUSH2 0x1351 JUMP JUMPDEST PUSH2 0x3E2 JUMP JUMPDEST PUSH2 0x1AF PUSH2 0x25C CALLDATASIZE PUSH1 0x4 PUSH2 0x1351 JUMP JUMPDEST PUSH2 0x410 JUMP JUMPDEST PUSH2 0x269 PUSH2 0x12D0 JUMP JUMPDEST PUSH2 0x273 DUP4 DUP4 PUSH2 0x437 JUMP JUMPDEST SWAP1 POP JUMPDEST SWAP3 SWAP2 POP POP JUMP JUMPDEST PUSH2 0x284 PUSH2 0x12D0 JUMP JUMPDEST PUSH2 0x29B PUSH2 0x296 CALLDATASIZE DUP5 SWAP1 SUB DUP5 ADD DUP5 PUSH2 0x1397 JUMP JUMPDEST PUSH2 0x5C6 JUMP JUMPDEST SWAP1 POP JUMPDEST SWAP2 SWAP1 POP JUMP JUMPDEST PUSH2 0x2AB PUSH2 0x12D0 JUMP JUMPDEST PUSH2 0x29B PUSH2 0x2BD CALLDATASIZE DUP5 SWAP1 SUB DUP5 ADD DUP5 PUSH2 0x1397 JUMP JUMPDEST PUSH2 0x6FD JUMP JUMPDEST PUSH1 0x0 PUSH2 0x29B PUSH2 0x2D6 CALLDATASIZE DUP5 SWAP1 SUB DUP5 ADD DUP5 PUSH2 0x1397 JUMP JUMPDEST PUSH2 0x85D JUMP JUMPDEST PUSH2 0x2E3 PUSH2 0x12D0 JUMP JUMPDEST PUSH2 0x273 PUSH2 0x2F5 CALLDATASIZE DUP6 SWAP1 SUB DUP6 ADD DUP6 PUSH2 0x1397 JUMP JUMPDEST PUSH2 0x304 CALLDATASIZE DUP6 SWAP1 SUB DUP6 ADD DUP6 PUSH2 0x1397 JUMP JUMPDEST PUSH2 0x874 JUMP JUMPDEST PUSH1 0x0 PUSH2 0x29B PUSH2 0x31D CALLDATASIZE DUP5 SWAP1 SUB DUP5 ADD DUP5 PUSH2 0x13E6 JUMP JUMPDEST PUSH2 0xAF0 JUMP JUMPDEST PUSH1 0x0 DUP1 GAS SWAP1 POP PUSH2 0x332 DUP5 DUP5 PUSH2 0x437 JUMP JUMPDEST POP GAS SWAP1 SUB SWAP4 SWAP3 POP POP POP JUMP JUMPDEST PUSH1 0x0 DUP1 GAS SWAP1 POP PUSH2 0x332 PUSH2 0x355 CALLDATASIZE DUP7 SWAP1 SUB DUP7 ADD DUP7 PUSH2 0x1397 JUMP JUMPDEST PUSH2 0x304 CALLDATASIZE DUP7 SWAP1 SUB DUP7 ADD DUP7 PUSH2 0x1397 JUMP JUMPDEST PUSH1 0x0 PUSH2 0x273 PUSH2 0x378 CALLDATASIZE DUP6 SWAP1 SUB DUP6 ADD DUP6 PUSH2 0x1397 JUMP JUMPDEST DUP4 PUSH2 0xAF7 JUMP JUMPDEST PUSH2 0x386 PUSH2 0x12E2 JUMP JUMPDEST PUSH2 0x273 PUSH2 0x398 CALLDATASIZE DUP6 SWAP1 SUB DUP6 ADD DUP6 PUSH2 0x1397 JUMP JUMPDEST DUP4 PUSH2 0xBBE JUMP JUMPDEST PUSH1 0x0 DUP1 GAS SWAP1 POP PUSH2 0x3B6 PUSH2 0x2BD CALLDATASIZE DUP6 SWAP1 SUB DUP6 ADD DUP6 PUSH2 0x1397 JUMP JUMPDEST POP GAS SWAP1 SUB SWAP3 SWAP2 POP POP JUMP JUMPDEST PUSH2 0x3C8 PUSH2 0x12E2 JUMP JUMPDEST PUSH2 0x29B DUP3 PUSH2 0xC4C JUMP JUMPDEST PUSH2 0x3D9 PUSH2 0x12D0 JUMP JUMPDEST PUSH2 0x29B DUP3 PUSH2 0xC8D JUMP JUMPDEST PUSH2 0x3EA PUSH2 0x12D0 JUMP JUMPDEST PUSH2 0x273 PUSH2 0x3FC CALLDATASIZE DUP6 SWAP1 SUB DUP6 ADD DUP6 PUSH2 0x1397 JUMP JUMPDEST PUSH2 0x40B CALLDATASIZE DUP6 SWAP1 SUB DUP6 ADD DUP6 PUSH2 0x1397 JUMP JUMPDEST PUSH2 0xCCA JUMP JUMPDEST PUSH1 0x0 DUP1 GAS SWAP1 POP PUSH2 0x332 PUSH2 0x428 CALLDATASIZE DUP7 SWAP1 SUB DUP7 ADD DUP7 PUSH2 0x1397 JUMP JUMPDEST PUSH2 0x40B CALLDATASIZE DUP7 SWAP1 SUB DUP7 ADD DUP7 PUSH2 0x1397 JUMP JUMPDEST PUSH2 0x43F PUSH2 0x12D0 JUMP JUMPDEST PUSH1 0x0 DUP3 GT PUSH2 0x482 JUMPI PUSH1 0x40 MLOAD PUSH32 0x8C379A000000000000000000000000000000000000000000000000000000000 DUP2 MSTORE PUSH1 0x4 ADD PUSH2 0x479 SWAP1 PUSH2 0x15BD JUMP JUMPDEST PUSH1 0x40 MLOAD DUP1 SWAP2 SUB SWAP1 REVERT JUMPDEST DUP3 PUSH2 0x49C JUMPI POP PUSH1 0x40 DUP1 MLOAD PUSH1 0x20 DUP2 ADD SWAP1 SWAP2 MSTORE PUSH1 0x0 DUP2 MSTORE PUSH2 0x276 JUMP JUMPDEST PUSH18 0xFFFFFFFFFFFFFFFFFFFFFFFFFFFFFFFFFFFF DUP4 GT PUSH2 0x552 JUMPI PUSH1 0x0 DUP3 PUSH1 0x70 DUP6 SWAP1 SHL DUP2 PUSH2 0x4C4 JUMPI INVALID JUMPDEST DIV SWAP1 POP PUSH28 0xFFFFFFFFFFFFFFFFFFFFFFFFFFFFFFFFFFFFFFFFFFFFFFFFFFFFFFFF DUP2 GT ISZERO PUSH2 0x51D JUMPI PUSH1 0x40 MLOAD PUSH32 0x8C379A000000000000000000000000000000000000000000000000000000000 DUP2 MSTORE PUSH1 0x4 ADD PUSH2 0x479 SWAP1 PUSH2 0x1651 JUMP JUMPDEST PUSH1 0x40 MLOAD DUP1 PUSH1 0x20 ADD PUSH1 0x40 MSTORE DUP1 DUP3 PUSH28 0xFFFFFFFFFFFFFFFFFFFFFFFFFFFFFFFFFFFFFFFFFFFFFFFFFFFFFFFF AND DUP2 MSTORE POP SWAP2 POP POP PUSH2 0x276 JUMP JUMPDEST PUSH1 0x0 PUSH2 0x56E DUP5 PUSH15 0x10000000000000000000000000000 DUP6 PUSH2 0xF48 JUMP JUMPDEST SWAP1 POP PUSH28 0xFFFFFFFFFFFFFFFFFFFFFFFFFFFFFFFFFFFFFFFFFFFFFFFFFFFFFFFF DUP2 GT ISZERO PUSH2 0x51D JUMPI PUSH1 0x40 MLOAD PUSH32 0x8C379A000000000000000000000000000000000000000000000000000000000 DUP2 MSTORE PUSH1 0x4 ADD PUSH2 0x479 SWAP1 PUSH2 0x1651 JUMP JUMPDEST PUSH2 0x5CE PUSH2 0x12D0 JUMP JUMPDEST DUP2 MLOAD PUSH28 0xFFFFFFFFFFFFFFFFFFFFFFFFFFFFFFFFFFFFFFFFFFFFFFFFFFFFFFFF AND PUSH2 0x624 JUMPI PUSH1 0x40 MLOAD PUSH32 0x8C379A000000000000000000000000000000000000000000000000000000000 DUP2 MSTORE PUSH1 0x4 ADD PUSH2 0x479 SWAP1 PUSH2 0x1788 JUMP JUMPDEST DUP2 PUSH1 0x0 ADD MLOAD PUSH28 0xFFFFFFFFFFFFFFFFFFFFFFFFFFFFFFFFFFFFFFFFFFFFFFFFFFFFFFFF AND PUSH1 0x1 EQ ISZERO PUSH2 0x681 JUMPI PUSH1 0x40 MLOAD PUSH32 0x8C379A000000000000000000000000000000000000000000000000000000000 DUP2 MSTORE PUSH1 0x4 ADD PUSH2 0x479 SWAP1 PUSH2 0x1753 JUMP JUMPDEST PUSH1 0x40 MLOAD DUP1 PUSH1 0x20 ADD PUSH1 0x40 MSTORE DUP1 DUP4 PUSH1 0x0 ADD MLOAD PUSH28 0xFFFFFFFFFFFFFFFFFFFFFFFFFFFFFFFFFFFFFFFFFFFFFFFFFFFFFFFF AND PUSH29 0x100000000000000000000000000000000000000000000000000000000 DUP2 PUSH2 0x6D4 JUMPI INVALID JUMPDEST DIV PUSH28 0xFFFFFFFFFFFFFFFFFFFFFFFFFFFFFFFFFFFFFFFFFFFFFFFFFFFFFFFF AND DUP2 MSTORE POP SWAP1 POP SWAP2 SWAP1 POP JUMP JUMPDEST PUSH2 0x705 PUSH2 0x12D0 JUMP JUMPDEST DUP2 MLOAD PUSH18 0xFFFFFFFFFFFFFFFFFFFFFFFFFFFFFFFFFFFF PUSH28 0xFFFFFFFFFFFFFFFFFFFFFFFFFFFFFFFFFFFFFFFFFFFFFFFFFFFFFFFF SWAP1 SWAP2 AND GT PUSH2 0x7A0 JUMPI PUSH1 0x40 MLOAD DUP1 PUSH1 0x20 ADD PUSH1 0x40 MSTORE DUP1 PUSH2 0x779 PUSH1 0x70 DUP6 PUSH1 0x0 ADD MLOAD PUSH28 0xFFFFFFFFFFFFFFFFFFFFFFFFFFFFFFFFFFFFFFFFFFFFFFFFFFFFFFFF AND SWAP1 SHL PUSH2 0xFE8 JUMP JUMPDEST PUSH28 0xFFFFFFFFFFFFFFFFFFFFFFFFFFFFFFFFFFFFFFFFFFFFFFFFFFFFFFFF AND SWAP1 MSTORE SWAP1 POP PUSH2 0x29E JUMP JUMPDEST PUSH1 0x0 PUSH2 0x7CD DUP4 PUSH1 0x0 ADD MLOAD PUSH28 0xFFFFFFFFFFFFFFFFFFFFFFFFFFFFFFFFFFFFFFFFFFFFFFFFFFFFFFFF AND PUSH2 0x113B JUMP JUMPDEST PUSH1 0xFF SUB SWAP1 POP PUSH1 0x2 DUP2 PUSH1 0xFF AND DUP2 PUSH2 0x7DF JUMPI INVALID JUMPDEST MOD DUP2 SUB SWAP1 POP PUSH1 0x40 MLOAD DUP1 PUSH1 0x20 ADD PUSH1 0x40 MSTORE DUP1 PUSH1 0x2 DUP4 PUSH1 0x70 SUB PUSH1 0xFF AND DUP2 PUSH2 0x7FF JUMPI INVALID JUMPDEST DIV PUSH1 0xFF AND PUSH2 0x834 DUP5 PUSH1 0xFF AND DUP8 PUSH1 0x0 ADD MLOAD PUSH28 0xFFFFFFFFFFFFFFFFFFFFFFFFFFFFFFFFFFFFFFFFFFFFFFFFFFFFFFFF AND SWAP1 SHL PUSH2 0xFE8 JUMP JUMPDEST SWAP1 SHL PUSH28 0xFFFFFFFFFFFFFFFFFFFFFFFFFFFFFFFFFFFFFFFFFFFFFFFFFFFFFFFF AND SWAP1 MSTORE SWAP4 SWAP3 POP POP POP JUMP JUMPDEST MLOAD PUSH1 0x70 SHR PUSH14 0xFFFFFFFFFFFFFFFFFFFFFFFFFFFF AND SWAP1 JUMP JUMPDEST PUSH2 0x87C PUSH2 0x12D0 JUMP JUMPDEST DUP3 MLOAD PUSH28 0xFFFFFFFFFFFFFFFFFFFFFFFFFFFFFFFFFFFFFFFFFFFFFFFFFFFFFFFF AND ISZERO DUP1 PUSH2 0x8C5 JUMPI POP DUP2 MLOAD PUSH28 0xFFFFFFFFFFFFFFFFFFFFFFFFFFFFFFFFFFFFFFFFFFFFFFFFFFFFFFFF AND ISZERO JUMPDEST ISZERO PUSH2 0x8DF JUMPI POP PUSH1 0x40 DUP1 MLOAD PUSH1 0x20 DUP2 ADD SWAP1 SWAP2 MSTORE PUSH1 0x0 DUP2 MSTORE PUSH2 0x276 JUMP JUMPDEST DUP3 MLOAD DUP3 MLOAD PUSH14 0xFFFFFFFFFFFFFFFFFFFFFFFFFFFF PUSH1 0x70 DUP4 DUP2 SHR DUP3 AND SWAP4 DUP3 AND SWAP3 SWAP1 DUP2 SWAP1 SHR DUP3 AND SWAP2 SWAP1 DUP2 AND SWAP1 DUP3 DUP6 MUL SWAP1 DUP3 DUP6 MUL SWAP1 DUP4 DUP8 MUL SWAP1 DUP6 DUP8 MUL SWAP1 PUSH28 0xFFFFFFFFFFFFFFFFFFFFFFFFFFFFFFFFFFFFFFFFFFFFFFFFFFFFFFFF DUP6 AND GT ISZERO PUSH2 0x96F JUMPI PUSH1 0x40 MLOAD PUSH32 0x8C379A000000000000000000000000000000000000000000000000000000000 DUP2 MSTORE PUSH1 0x4 ADD PUSH2 0x479 SWAP1 PUSH2 0x16F6 JUMP JUMPDEST PUSH1 0x0 PUSH1 0x70 PUSH1 0xFF AND DUP5 PUSH28 0xFFFFFFFFFFFFFFFFFFFFFFFFFFFFFFFFFFFFFFFFFFFFFFFFFFFFFFFF AND SWAP1 SHR PUSH28 0xFFFFFFFFFFFFFFFFFFFFFFFFFFFFFFFFFFFFFFFFFFFFFFFFFFFFFFFF AND DUP3 PUSH28 0xFFFFFFFFFFFFFFFFFFFFFFFFFFFFFFFFFFFFFFFFFFFFFFFFFFFFFFFF AND DUP5 PUSH28 0xFFFFFFFFFFFFFFFFFFFFFFFFFFFFFFFFFFFFFFFFFFFFFFFFFFFFFFFF AND PUSH1 0x70 PUSH1 0xFF AND DUP9 PUSH28 0xFFFFFFFFFFFFFFFFFFFFFFFFFFFFFFFFFFFFFFFFFFFFFFFFFFFFFFFF AND SWAP1 SHL PUSH28 0xFFFFFFFFFFFFFFFFFFFFFFFFFFFFFFFFFFFFFFFFFFFFFFFFFFFFFFFF AND ADD ADD ADD SWAP1 POP PUSH32 0xFFFFFFFFFFFFFFFFFFFFFFFFFFFFFFFFFFFFFFFFFFFFFFFFFFFFFFFFFFFFFFFF PUSH28 0xFFFFFFFFFFFFFFFFFFFFFFFFFFFFFFFFFFFFFFFFFFFFFFFFFFFFFFFF AND DUP2 GT ISZERO PUSH2 0xAB4 JUMPI PUSH1 0x40 MLOAD PUSH32 0x8C379A000000000000000000000000000000000000000000000000000000000 DUP2 MSTORE PUSH1 0x4 ADD PUSH2 0x479 SWAP1 PUSH2 0x1688 JUMP JUMPDEST PUSH1 0x40 DUP1 MLOAD PUSH1 0x20 DUP2 ADD SWAP1 SWAP2 MSTORE PUSH28 0xFFFFFFFFFFFFFFFFFFFFFFFFFFFFFFFFFFFFFFFFFFFFFFFFFFFFFFFF SWAP1 SWAP2 AND DUP2 MSTORE SWAP12 SWAP11 POP POP POP POP POP POP POP POP POP POP POP JUMP JUMPDEST MLOAD PUSH1 0x70 SHR SWAP1 JUMP JUMPDEST PUSH1 0x0 DUP1 PUSH2 0xB48 DUP5 PUSH1 0x0 ADD MLOAD PUSH28 0xFFFFFFFFFFFFFFFFFFFFFFFFFFFFFFFFFFFFFFFFFFFFFFFFFFFFFFFF AND PUSH1 0x0 DUP6 SLT PUSH2 0xB2E JUMPI DUP5 PUSH2 0xB33 JUMP JUMPDEST DUP5 PUSH1 0x0 SUB JUMPDEST PUSH15 0x10000000000000000000000000000 PUSH2 0xF48 JUMP JUMPDEST SWAP1 POP PUSH32 0x8000000000000000000000000000000000000000000000000000000000000000 DUP2 LT PUSH2 0xBA3 JUMPI PUSH1 0x40 MLOAD PUSH32 0x8C379A000000000000000000000000000000000000000000000000000000000 DUP2 MSTORE PUSH1 0x4 ADD PUSH2 0x479 SWAP1 PUSH2 0x16BF JUMP JUMPDEST PUSH1 0x0 DUP4 SLT PUSH2 0xBB1 JUMPI DUP1 PUSH2 0xBB6 JUMP JUMPDEST DUP1 PUSH1 0x0 SUB JUMPDEST SWAP5 SWAP4 POP POP POP POP JUMP JUMPDEST PUSH2 0xBC6 PUSH2 0x12E2 JUMP JUMPDEST PUSH1 0x0 DUP3 ISZERO DUP1 PUSH2 0xC01 JUMPI POP POP DUP3 MLOAD PUSH28 0xFFFFFFFFFFFFFFFFFFFFFFFFFFFFFFFFFFFFFFFFFFFFFFFFFFFFFFFF AND DUP3 DUP2 MUL SWAP1 DUP4 DUP3 DUP2 PUSH2 0xBFE JUMPI INVALID JUMPDEST DIV EQ JUMPDEST PUSH2 0xC37 JUMPI PUSH1 0x40 MLOAD PUSH32 0x8C379A000000000000000000000000000000000000000000000000000000000 DUP2 MSTORE PUSH1 0x4 ADD PUSH2 0x479 SWAP1 PUSH2 0x1586 JUMP JUMPDEST PUSH1 0x40 DUP1 MLOAD PUSH1 0x20 DUP2 ADD SWAP1 SWAP2 MSTORE SWAP1 DUP2 MSTORE SWAP4 SWAP3 POP POP POP JUMP JUMPDEST PUSH2 0xC54 PUSH2 0x12E2 JUMP JUMPDEST POP PUSH1 0x40 DUP1 MLOAD PUSH1 0x20 DUP2 ADD SWAP1 SWAP2 MSTORE PUSH1 0x70 SWAP2 SWAP1 SWAP2 SHL PUSH32 0xFFFFFFFFFFFFFFFFFFFFFFFFFFFFFFFFFFFF0000000000000000000000000000 AND DUP2 MSTORE SWAP1 JUMP JUMPDEST PUSH2 0xC95 PUSH2 0x12D0 JUMP JUMPDEST POP PUSH1 0x40 DUP1 MLOAD PUSH1 0x20 DUP2 ADD SWAP1 SWAP2 MSTORE PUSH1 0x70 SWAP2 SWAP1 SWAP2 SHL PUSH28 0xFFFFFFFFFFFFFFFFFFFFFFFFFFFF0000000000000000000000000000 AND DUP2 MSTORE SWAP1 JUMP JUMPDEST PUSH2 0xCD2 PUSH2 0x12D0 JUMP JUMPDEST DUP2 MLOAD PUSH28 0xFFFFFFFFFFFFFFFFFFFFFFFFFFFFFFFFFFFFFFFFFFFFFFFFFFFFFFFF AND PUSH2 0xD28 JUMPI PUSH1 0x40 MLOAD PUSH32 0x8C379A000000000000000000000000000000000000000000000000000000000 DUP2 MSTORE PUSH1 0x4 ADD PUSH2 0x479 SWAP1 PUSH2 0x1529 JUMP JUMPDEST DUP2 MLOAD DUP4 MLOAD PUSH28 0xFFFFFFFFFFFFFFFFFFFFFFFFFFFFFFFFFFFFFFFFFFFFFFFFFFFFFFFF SWAP1 DUP2 AND SWAP2 AND EQ ISZERO PUSH2 0xD77 JUMPI POP PUSH1 0x40 DUP1 MLOAD PUSH1 0x20 DUP2 ADD SWAP1 SWAP2 MSTORE PUSH15 0x10000000000000000000000000000 DUP2 MSTORE PUSH2 0x276 JUMP JUMPDEST DUP3 MLOAD PUSH18 0xFFFFFFFFFFFFFFFFFFFFFFFFFFFFFFFFFFFF PUSH28 0xFFFFFFFFFFFFFFFFFFFFFFFFFFFFFFFFFFFFFFFFFFFFFFFFFFFFFFFF SWAP1 SWAP2 AND GT PUSH2 0xE5C JUMPI DUP2 MLOAD DUP4 MLOAD PUSH1 0x0 SWAP2 PUSH28 0xFFFFFFFFFFFFFFFFFFFFFFFFFFFFFFFFFFFFFFFFFFFFFFFFFFFFFFFF AND SWAP1 PUSH1 0x70 SHL PUSH32 0xFFFFFFFFFFFFFFFFFFFFFFFFFFFFFFFFFFFF0000000000000000000000000000 AND DUP2 PUSH2 0xE03 JUMPI INVALID JUMPDEST DIV SWAP1 POP PUSH28 0xFFFFFFFFFFFFFFFFFFFFFFFFFFFFFFFFFFFFFFFFFFFFFFFFFFFFFFFF DUP2 GT ISZERO PUSH2 0x51D JUMPI PUSH1 0x40 MLOAD PUSH32 0x8C379A000000000000000000000000000000000000000000000000000000000 DUP2 MSTORE PUSH1 0x4 ADD PUSH2 0x479 SWAP1 PUSH2 0x14F2 JUMP JUMPDEST PUSH1 0x0 PUSH2 0xEBC PUSH15 0x10000000000000000000000000000 DUP6 PUSH1 0x0 ADD MLOAD PUSH28 0xFFFFFFFFFFFFFFFFFFFFFFFFFFFFFFFFFFFFFFFFFFFFFFFFFFFFFFFF AND DUP6 PUSH1 0x0 ADD MLOAD PUSH28 0xFFFFFFFFFFFFFFFFFFFFFFFFFFFFFFFFFFFFFFFFFFFFFFFFFFFFFFFF AND PUSH2 0xF48 JUMP JUMPDEST SWAP1 POP PUSH28 0xFFFFFFFFFFFFFFFFFFFFFFFFFFFFFFFFFFFFFFFFFFFFFFFFFFFFFFFF DUP2 GT ISZERO PUSH2 0xF14 JUMPI PUSH1 0x40 MLOAD PUSH32 0x8C379A000000000000000000000000000000000000000000000000000000000 DUP2 MSTORE PUSH1 0x4 ADD PUSH2 0x479 SWAP1 PUSH2 0x14F2 JUMP JUMPDEST PUSH1 0x40 DUP1 MLOAD PUSH1 0x20 DUP2 ADD SWAP1 SWAP2 MSTORE PUSH28 0xFFFFFFFFFFFFFFFFFFFFFFFFFFFFFFFFFFFFFFFFFFFFFFFFFFFFFFFF SWAP1 SWAP2 AND DUP2 MSTORE SWAP4 SWAP3 POP POP POP JUMP JUMPDEST PUSH1 0x0 DUP1 PUSH1 0x0 PUSH2 0xF57 DUP7 DUP7 PUSH2 0x1215 JUMP JUMPDEST SWAP2 POP SWAP2 POP PUSH1 0x0 DUP5 DUP1 PUSH2 0xF65 JUMPI INVALID JUMPDEST DUP7 DUP9 MULMOD SWAP1 POP DUP3 DUP2 GT ISZERO PUSH2 0xF79 JUMPI PUSH1 0x1 DUP3 SUB SWAP2 POP JUMPDEST SWAP2 DUP3 SWAP1 SUB SWAP2 DUP2 PUSH2 0xF97 JUMPI DUP5 DUP4 DUP2 PUSH2 0xF8C JUMPI INVALID JUMPDEST DIV SWAP4 POP POP POP POP PUSH2 0xFE1 JUMP JUMPDEST DUP5 DUP3 LT PUSH2 0xFD0 JUMPI PUSH1 0x40 MLOAD PUSH32 0x8C379A000000000000000000000000000000000000000000000000000000000 DUP2 MSTORE PUSH1 0x4 ADD PUSH2 0x479 SWAP1 PUSH2 0x161A JUMP JUMPDEST PUSH2 0xFDB DUP4 DUP4 DUP8 PUSH2 0x1260 JUMP JUMPDEST SWAP4 POP POP POP POP JUMPDEST SWAP4 SWAP3 POP POP POP JUMP JUMPDEST PUSH1 0x0 DUP2 PUSH2 0xFF7 JUMPI POP PUSH1 0x0 PUSH2 0x29E JUMP JUMPDEST DUP2 PUSH1 0x1 PUSH17 0x100000000000000000000000000000000 DUP3 LT PUSH2 0x101D JUMPI PUSH1 0x80 SWAP2 SWAP1 SWAP2 SHR SWAP1 PUSH1 0x40 SHL JUMPDEST PUSH9 0x10000000000000000 DUP3 LT PUSH2 0x1038 JUMPI PUSH1 0x40 SWAP2 SWAP1 SWAP2 SHR SWAP1 PUSH1 0x20 SHL JUMPDEST PUSH5 0x100000000 DUP3 LT PUSH2 0x104F JUMPI PUSH1 0x20 SWAP2 SWAP1 SWAP2 SHR SWAP1 PUSH1 0x10 SHL JUMPDEST PUSH3 0x10000 DUP3 LT PUSH2 0x1064 JUMPI PUSH1 0x10 SWAP2 SWAP1 SWAP2 SHR SWAP1 PUSH1 0x8 SHL JUMPDEST PUSH2 0x100 DUP3 LT PUSH2 0x1078 JUMPI PUSH1 0x8 SWAP2 SWAP1 SWAP2 SHR SWAP1 PUSH1 0x4 SHL JUMPDEST PUSH1 0x10 DUP3 LT PUSH2 0x108B JUMPI PUSH1 0x4 SWAP2 SWAP1 SWAP2 SHR SWAP1 PUSH1 0x2 SHL JUMPDEST PUSH1 0x8 DUP3 LT PUSH2 0x1097 JUMPI PUSH1 0x1 SHL JUMPDEST PUSH1 0x1 DUP2 DUP6 DUP2 PUSH2 0x10A2 JUMPI INVALID JUMPDEST DIV DUP3 ADD SWAP1 SHR SWAP1 POP PUSH1 0x1 DUP2 DUP6 DUP2 PUSH2 0x10B4 JUMPI INVALID JUMPDEST DIV DUP3 ADD SWAP1 SHR SWAP1 POP PUSH1 0x1 DUP2 DUP6 DUP2 PUSH2 0x10C6 JUMPI INVALID JUMPDEST DIV DUP3 ADD SWAP1 SHR SWAP1 POP PUSH1 0x1 DUP2 DUP6 DUP2 PUSH2 0x10D8 JUMPI INVALID JUMPDEST DIV DUP3 ADD SWAP1 SHR SWAP1 POP PUSH1 0x1 DUP2 DUP6 DUP2 PUSH2 0x10EA JUMPI INVALID JUMPDEST DIV DUP3 ADD SWAP1 SHR SWAP1 POP PUSH1 0x1 DUP2 DUP6 DUP2 PUSH2 0x10FC JUMPI INVALID JUMPDEST DIV DUP3 ADD SWAP1 SHR SWAP1 POP PUSH1 0x1 DUP2 DUP6 DUP2 PUSH2 0x110E JUMPI INVALID JUMPDEST DIV DUP3 ADD SWAP1 SHR SWAP1 POP PUSH1 0x0 DUP2 DUP6 DUP2 PUSH2 0x1120 JUMPI INVALID JUMPDEST DIV SWAP1 POP DUP1 DUP3 LT PUSH2 0x1130 JUMPI DUP1 PUSH2 0x1132 JUMP JUMPDEST DUP2 JUMPDEST SWAP6 SWAP5 POP POP POP POP POP JUMP JUMPDEST PUSH1 0x0 DUP1 DUP3 GT PUSH2 0x1176 JUMPI PUSH1 0x40 MLOAD PUSH32 0x8C379A000000000000000000000000000000000000000000000000000000000 DUP2 MSTORE PUSH1 0x4 ADD PUSH2 0x479 SWAP1 PUSH2 0x1495 JUMP JUMPDEST PUSH17 0x100000000000000000000000000000000 DUP3 LT PUSH2 0x1196 JUMPI PUSH1 0x80 SWAP2 DUP3 SHR SWAP2 ADD JUMPDEST PUSH9 0x10000000000000000 DUP3 LT PUSH2 0x11AE JUMPI PUSH1 0x40 SWAP2 DUP3 SHR SWAP2 ADD JUMPDEST PUSH5 0x100000000 DUP3 LT PUSH2 0x11C2 JUMPI PUSH1 0x20 SWAP2 DUP3 SHR SWAP2 ADD JUMPDEST PUSH3 0x10000 DUP3 LT PUSH2 0x11D4 JUMPI PUSH1 0x10 SWAP2 DUP3 SHR SWAP2 ADD JUMPDEST PUSH2 0x100 DUP3 LT PUSH2 0x11E5 JUMPI PUSH1 0x8 SWAP2 DUP3 SHR SWAP2 ADD JUMPDEST PUSH1 0x10 DUP3 LT PUSH2 0x11F5 JUMPI PUSH1 0x4 SWAP2 DUP3 SHR SWAP2 ADD JUMPDEST PUSH1 0x4 DUP3 LT PUSH2 0x1205 JUMPI PUSH1 0x2 SWAP2 DUP3 SHR SWAP2 ADD JUMPDEST PUSH1 0x2 DUP3 LT PUSH2 0x29E JUMPI PUSH1 0x1 ADD SWAP2 SWAP1 POP JUMP JUMPDEST PUSH1 0x0 DUP1 DUP1 PUSH32 0xFFFFFFFFFFFFFFFFFFFFFFFFFFFFFFFFFFFFFFFFFFFFFFFFFFFFFFFFFFFFFFFF DUP5 DUP7 MULMOD SWAP1 POP DUP4 DUP6 MUL SWAP3 POP DUP3 DUP2 SUB SWAP2 POP DUP3 DUP2 LT ISZERO PUSH2 0x1258 JUMPI PUSH1 0x1 DUP3 SUB SWAP2 POP JUMPDEST POP SWAP3 POP SWAP3 SWAP1 POP JUMP JUMPDEST PUSH1 0x0 DUP2 DUP2 SUB DUP3 AND DUP1 DUP4 DUP2 PUSH2 0x1270 JUMPI INVALID JUMPDEST DIV SWAP3 POP DUP1 DUP6 DUP2 PUSH2 0x127C JUMPI INVALID JUMPDEST DIV SWAP5 POP DUP1 DUP2 PUSH1 0x0 SUB DUP2 PUSH2 0x128B JUMPI INVALID JUMPDEST PUSH1 0x2 DUP6 DUP2 SUB DUP1 DUP8 MUL DUP3 SUB MUL DUP1 DUP8 MUL DUP3 SUB MUL DUP1 DUP8 MUL DUP3 SUB MUL DUP1 DUP8 MUL DUP3 SUB MUL DUP1 DUP8 MUL DUP3 SUB MUL DUP1 DUP8 MUL DUP3 SUB MUL SWAP6 DUP7 MUL SWAP1 SUB SWAP1 SWAP5 MUL SWAP4 DIV PUSH1 0x1 ADD SWAP4 SWAP1 SWAP4 MUL SWAP4 SWAP1 SWAP4 ADD MUL SWAP3 SWAP2 POP POP JUMP JUMPDEST PUSH1 0x40 DUP1 MLOAD PUSH1 0x20 DUP2 ADD SWAP1 SWAP2 MSTORE PUSH1 0x0 DUP2 MSTORE SWAP1 JUMP JUMPDEST PUSH1 0x40 MLOAD DUP1 PUSH1 0x20 ADD PUSH1 0x40 MSTORE DUP1 PUSH1 0x0 DUP2 MSTORE POP SWAP1 JUMP JUMPDEST PUSH1 0x0 PUSH1 0x20 DUP3 DUP5 SUB SLT ISZERO PUSH2 0x1306 JUMPI DUP1 DUP2 REVERT JUMPDEST POP SWAP2 SWAP1 POP JUMP JUMPDEST PUSH1 0x0 PUSH1 0x20 DUP3 DUP5 SUB SLT ISZERO PUSH2 0x131D JUMPI DUP1 DUP2 REVERT JUMPDEST PUSH2 0x273 DUP4 DUP4 PUSH2 0x12F5 JUMP JUMPDEST PUSH1 0x0 DUP1 PUSH1 0x40 DUP4 DUP6 SUB SLT ISZERO PUSH2 0x1339 JUMPI DUP1 DUP2 REVERT JUMPDEST PUSH2 0x1343 DUP5 DUP5 PUSH2 0x12F5 JUMP JUMPDEST SWAP5 PUSH1 0x20 SWAP4 SWAP1 SWAP4 ADD CALLDATALOAD SWAP4 POP POP POP JUMP JUMPDEST PUSH1 0x0 DUP1 PUSH1 0x40 DUP4 DUP6 SUB SLT ISZERO PUSH2 0x1363 JUMPI DUP2 DUP3 REVERT JUMPDEST PUSH2 0x136D DUP5 DUP5 PUSH2 0x12F5 JUMP JUMPDEST SWAP2 POP PUSH2 0x137C DUP5 PUSH1 0x20 DUP6 ADD PUSH2 0x12F5 JUMP JUMPDEST SWAP1 POP SWAP3 POP SWAP3 SWAP1 POP JUMP JUMPDEST PUSH1 0x0 DUP1 PUSH1 0x40 DUP4 DUP6 SUB SLT ISZERO PUSH2 0x1339 JUMPI DUP2 DUP3 REVERT JUMPDEST PUSH1 0x0 PUSH1 0x20 DUP3 DUP5 SUB SLT ISZERO PUSH2 0x13A8 JUMPI DUP1 DUP2 REVERT JUMPDEST PUSH2 0x13B2 PUSH1 0x20 PUSH2 0x1851 JUMP JUMPDEST DUP3 CALLDATALOAD PUSH28 0xFFFFFFFFFFFFFFFFFFFFFFFFFFFFFFFFFFFFFFFFFFFFFFFFFFFFFFFF DUP2 AND DUP2 EQ PUSH2 0x13DD JUMPI DUP3 DUP4 REVERT JUMPDEST DUP2 MSTORE SWAP4 SWAP3 POP POP POP JUMP JUMPDEST PUSH1 0x0 PUSH1 0x20 DUP3 DUP5 SUB SLT ISZERO PUSH2 0x13F7 JUMPI DUP1 DUP2 REVERT JUMPDEST PUSH2 0x1401 PUSH1 0x20 PUSH2 0x1851 JUMP JUMPDEST SWAP2 CALLDATALOAD DUP3 MSTORE POP SWAP2 SWAP1 POP JUMP JUMPDEST PUSH1 0x0 PUSH1 0x20 DUP3 DUP5 SUB SLT ISZERO PUSH2 0x141C JUMPI DUP1 DUP2 REVERT JUMPDEST DUP2 CALLDATALOAD PUSH14 0xFFFFFFFFFFFFFFFFFFFFFFFFFFFF DUP2 AND DUP2 EQ PUSH2 0xFE1 JUMPI DUP2 DUP3 REVERT JUMPDEST PUSH1 0x0 PUSH1 0x20 DUP3 DUP5 SUB SLT ISZERO PUSH2 0x144A JUMPI DUP1 DUP2 REVERT JUMPDEST DUP2 CALLDATALOAD PUSH18 0xFFFFFFFFFFFFFFFFFFFFFFFFFFFFFFFFFFFF DUP2 AND DUP2 EQ PUSH2 0xFE1 JUMPI DUP2 DUP3 REVERT JUMPDEST PUSH1 0x0 DUP1 PUSH1 0x40 DUP4 DUP6 SUB SLT ISZERO PUSH2 0x147D JUMPI DUP2 DUP3 REVERT JUMPDEST POP POP DUP1 CALLDATALOAD SWAP3 PUSH1 0x20 SWAP1 SWAP2 ADD CALLDATALOAD SWAP2 POP JUMP JUMPDEST SWAP1 DUP2 MSTORE PUSH1 0x20 ADD SWAP1 JUMP JUMPDEST PUSH1 0x20 DUP1 DUP3 MSTORE PUSH1 0x21 SWAP1 DUP3 ADD MSTORE PUSH32 0x4269744D6174683A3A6D6F73745369676E69666963616E744269743A207A6572 PUSH1 0x40 DUP3 ADD MSTORE PUSH32 0x6F00000000000000000000000000000000000000000000000000000000000000 PUSH1 0x60 DUP3 ADD MSTORE PUSH1 0x80 ADD SWAP1 JUMP JUMPDEST PUSH1 0x20 DUP1 DUP3 MSTORE PUSH1 0x1B SWAP1 DUP3 ADD MSTORE PUSH32 0x4669786564506F696E743A3A64697675713A206F766572666C6F770000000000 PUSH1 0x40 DUP3 ADD MSTORE PUSH1 0x60 ADD SWAP1 JUMP JUMPDEST PUSH1 0x20 DUP1 DUP3 MSTORE PUSH1 0x23 SWAP1 DUP3 ADD MSTORE PUSH32 0x4669786564506F696E743A3A64697675713A206469766973696F6E206279207A PUSH1 0x40 DUP3 ADD MSTORE PUSH32 0x65726F0000000000000000000000000000000000000000000000000000000000 PUSH1 0x60 DUP3 ADD MSTORE PUSH1 0x80 ADD SWAP1 JUMP JUMPDEST PUSH1 0x20 DUP1 DUP3 MSTORE PUSH1 0x19 SWAP1 DUP3 ADD MSTORE PUSH32 0x4669786564506F696E743A3A6D756C3A206F766572666C6F7700000000000000 PUSH1 0x40 DUP3 ADD MSTORE PUSH1 0x60 ADD SWAP1 JUMP JUMPDEST PUSH1 0x20 DUP1 DUP3 MSTORE PUSH1 0x26 SWAP1 DUP3 ADD MSTORE PUSH32 0x4669786564506F696E743A3A6672616374696F6E3A206469766973696F6E2062 PUSH1 0x40 DUP3 ADD MSTORE PUSH32 0x79207A65726F0000000000000000000000000000000000000000000000000000 PUSH1 0x60 DUP3 ADD MSTORE PUSH1 0x80 ADD SWAP1 JUMP JUMPDEST PUSH1 0x20 DUP1 DUP3 MSTORE PUSH1 0x1A SWAP1 DUP3 ADD MSTORE PUSH32 0x46756C6C4D6174683A2046554C4C4449565F4F564552464C4F57000000000000 PUSH1 0x40 DUP3 ADD MSTORE PUSH1 0x60 ADD SWAP1 JUMP JUMPDEST PUSH1 0x20 DUP1 DUP3 MSTORE PUSH1 0x1E SWAP1 DUP3 ADD MSTORE PUSH32 0x4669786564506F696E743A3A6672616374696F6E3A206F766572666C6F770000 PUSH1 0x40 DUP3 ADD MSTORE PUSH1 0x60 ADD SWAP1 JUMP JUMPDEST PUSH1 0x20 DUP1 DUP3 MSTORE PUSH1 0x1F SWAP1 DUP3 ADD MSTORE PUSH32 0x4669786564506F696E743A3A6D756C75713A2073756D206F766572666C6F7700 PUSH1 0x40 DUP3 ADD MSTORE PUSH1 0x60 ADD SWAP1 JUMP JUMPDEST PUSH1 0x20 DUP1 DUP3 MSTORE PUSH1 0x1A SWAP1 DUP3 ADD MSTORE PUSH32 0x4669786564506F696E743A3A6D756C693A206F766572666C6F77000000000000 PUSH1 0x40 DUP3 ADD MSTORE PUSH1 0x60 ADD SWAP1 JUMP JUMPDEST PUSH1 0x20 DUP1 DUP3 MSTORE PUSH1 0x21 SWAP1 DUP3 ADD MSTORE PUSH32 0x4669786564506F696E743A3A6D756C75713A207570706572206F766572666C6F PUSH1 0x40 DUP3 ADD MSTORE PUSH32 0x7700000000000000000000000000000000000000000000000000000000000000 PUSH1 0x60 DUP3 ADD MSTORE PUSH1 0x80 ADD SWAP1 JUMP JUMPDEST PUSH1 0x20 DUP1 DUP3 MSTORE DUP2 DUP2 ADD MSTORE PUSH32 0x4669786564506F696E743A3A7265636970726F63616C3A206F766572666C6F77 PUSH1 0x40 DUP3 ADD MSTORE PUSH1 0x60 ADD SWAP1 JUMP JUMPDEST PUSH1 0x20 DUP1 DUP3 MSTORE PUSH1 0x2A SWAP1 DUP3 ADD MSTORE PUSH32 0x4669786564506F696E743A3A7265636970726F63616C3A207265636970726F63 PUSH1 0x40 DUP3 ADD MSTORE PUSH32 0x616C206F66207A65726F00000000000000000000000000000000000000000000 PUSH1 0x60 DUP3 ADD MSTORE PUSH1 0x80 ADD SWAP1 JUMP JUMPDEST SWAP1 MLOAD PUSH28 0xFFFFFFFFFFFFFFFFFFFFFFFFFFFFFFFFFFFFFFFFFFFFFFFFFFFFFFFF AND DUP2 MSTORE PUSH1 0x20 ADD SWAP1 JUMP JUMPDEST SWAP1 MLOAD DUP2 MSTORE PUSH1 0x20 ADD SWAP1 JUMP JUMPDEST PUSH14 0xFFFFFFFFFFFFFFFFFFFFFFFFFFFF SWAP2 SWAP1 SWAP2 AND DUP2 MSTORE PUSH1 0x20 ADD SWAP1 JUMP JUMPDEST PUSH18 0xFFFFFFFFFFFFFFFFFFFFFFFFFFFFFFFFFFFF SWAP2 SWAP1 SWAP2 AND DUP2 MSTORE PUSH1 0x20 ADD SWAP1 JUMP JUMPDEST PUSH1 0x40 MLOAD DUP2 DUP2 ADD PUSH8 0xFFFFFFFFFFFFFFFF DUP2 GT DUP3 DUP3 LT OR ISZERO PUSH2 0x1870 JUMPI PUSH1 0x0 DUP1 REVERT JUMPDEST PUSH1 0x40 MSTORE SWAP2 SWAP1 POP JUMP INVALID LOG2 PUSH5 0x6970667358 0x22 SLT KECCAK256 SWAP15 0xA9 JUMPI DUP9 0x27 0xCA RETURN 0x48 OR 0x22 STOP INVALID 0xBA EXP BLOCKHASH SELFBALANCE PUSH6 0x25DA4CF324FA SUB LOG4 DUP6 CALLDATACOPY 0x26 SUB PUSH16 0x902864736F6C634300060C0033000000 "
    }
  }
}