{
  "abi": [
    {
      "inputs": [
        {
          "internalType": "bool",
          "name": "shouldRevert_",
          "type": "bool"
        }
      ],
      "name": "setup",
      "outputs": [],
      "stateMutability": "nonpayable",
      "type": "function"
    },
    {
      "inputs": [],
      "name": "shouldRevert",
      "outputs": [
        {
          "internalType": "bool",
          "name": "",
          "type": "bool"
        }
      ],
      "stateMutability": "view",
      "type": "function"
    },
    {
      "inputs": [],
      "name": "withdraw",
      "outputs": [],
      "stateMutability": "nonpayable",
      "type": "function"
    },
    {
      "stateMutability": "payable",
      "type": "receive"
    }
  ],
  "evm": {
    "bytecode": {
      "linkReferences": {},
      "object": "608060405234801561001057600080fd5b5061015d806100206000396000f3fe6080604052600436106100385760003560e01c80633ccfd60b14610054578063d3072d8214610069578063e2c169ec146100925761004f565b3661004f5760005460ff161561004d57600080fd5b005b600080fd5b34801561006057600080fd5b5061004d6100be565b34801561007557600080fd5b5061007e6100ed565b604080519115158252519081900360200190f35b34801561009e57600080fd5b5061004d600480360360208110156100b557600080fd5b503515156100f6565b60405133904780156108fc02916000818181858888f193505050501580156100ea573d6000803e3d6000fd5b50565b60005460ff1681565b600080547fffffffffffffffffffffffffffffffffffffffffffffffffffffffffffffff001691151591909117905556fea26469706673582212209fd5a58ccf0944663a03c40e106c681210e3373b07215fed022b8333533a632564736f6c634300060c0033",
      "opcodes": "PUSH1 0x80 PUSH1 0x40 MSTORE CALLVALUE DUP1 ISZERO PUSH2 0x10 JUMPI PUSH1 0x0 DUP1 REVERT JUMPDEST POP PUSH2 0x15D DUP1 PUSH2 0x20 PUSH1 0x0 CODECOPY PUSH1 0x0 RETURN INVALID PUSH1 0x80 PUSH1 0x40 MSTORE PUSH1 0x4 CALLDATASIZE LT PUSH2 0x38 JUMPI PUSH1 0x0 CALLDATALOAD PUSH1 0xE0 SHR DUP1 PUSH4 0x3CCFD60B EQ PUSH2 0x54 JUMPI DUP1 PUSH4 0xD3072D82 EQ PUSH2 0x69 JUMPI DUP1 PUSH4 0xE2C169EC EQ PUSH2 0x92 JUMPI PUSH2 0x4F JUMP JUMPDEST CALLDATASIZE PUSH2 0x4F JUMPI PUSH1 0x0 SLOAD PUSH1 0xFF AND ISZERO PUSH2 0x4D JUMPI PUSH1 0x0 DUP1 REVERT JUMPDEST STOP JUMPDEST PUSH1 0x0 DUP1 REVERT JUMPDEST CALLVALUE DUP1 ISZERO PUSH2 0x60 JUMPI PUSH1 0x0 DUP1 REVERT JUMPDEST POP PUSH2 0x4D PUSH2 0xBE JUMP JUMPDEST CALLVALUE DUP1 ISZERO PUSH2 0x75 JUMPI PUSH1 0x0 DUP1 REVERT JUMPDEST POP PUSH2 0x7E PUSH2 0xED JUMP JUMPDEST PUSH1 0x40 DUP1 MLOAD SWAP2 ISZERO ISZERO DUP3 MSTORE MLOAD SWAP1 DUP2 SWAP1 SUB PUSH1 0x20 ADD SWAP1 RETURN JUMPDEST CALLVALUE DUP1 ISZERO PUSH2 0x9E JUMPI PUSH1 0x0 DUP1 REVERT JUMPDEST POP PUSH2 0x4D PUSH1 0x4 DUP1 CALLDATASIZE SUB PUSH1 0x20 DUP2 LT ISZERO PUSH2 0xB5 JUMPI PUSH1 0x0 DUP1 REVERT JUMPDEST POP CALLDATALOAD ISZERO ISZERO PUSH2 0xF6 JUMP JUMPDEST PUSH1 0x40 MLOAD CALLER SWAP1 SELFBALANCE DUP1 ISZERO PUSH2 0x8FC MUL SWAP2 PUSH1 0x0 DUP2 DUP2 DUP2 DUP6 DUP9 DUP9 CALL SWAP4 POP POP POP POP ISZERO DUP1 ISZERO PUSH2 0xEA JUMPI RETURNDATASIZE PUSH1 0x0 DUP1 RETURNDATACOPY RETURNDATASIZE PUSH1 0x0 REVERT JUMPDEST POP JUMP JUMPDEST PUSH1 0x0 SLOAD PUSH1 0xFF AND DUP2 JUMP JUMPDEST PUSH1 0x0 DUP1 SLOAD PUSH32 0xFFFFFFFFFFFFFFFFFFFFFFFFFFFFFFFFFFFFFFFFFFFFFFFFFFFFFFFFFFFFFF00 AND SWAP2 ISZERO ISZERO SWAP2 SWAP1 SWAP2 OR SWAP1 SSTORE JUMP INVALID LOG2 PUSH5 0x6970667358 0x22 SLT KECCAK256 SWAP16 0xD5 0xA5 DUP13 0xCF MULMOD DIFFICULTY PUSH7 0x3A03C40E106C68 SLT LT 0xE3 CALLDATACOPY EXTCODESIZE SMOD 0x21 0x5F 0xED MUL 0x2B DUP4 CALLER MSTORE8 GASPRICE PUSH4 0x2564736F PUSH13 0x634300060C0033000000000000 "
    }
  }
}